:100000000C9461000C9489000C9489000C94890074
:100010000C94D7050C9489000C9489000C948900E9
:100020000C9489000C9406060C9489000C948900A9
:100030000C9489000C9489000C9489000C9489001C
:100040000C9489000C9489000C9425010C945D019A
:100050000C9489000C9489000C9489000C948900FC
:100060000C942C040C948900DB0ADD0AE10AE50AF1
:10007000E80AEB0AEB0AFD0AFF0A010B030B050B6A
:10008000070B090B980F3E0F9D0F430F480F4D0FA5
:10009000520FE513E713E913EB13ED13EF13F1130D
:1000A000F31319151B151D151F15211523152515DE
:1000B000271529152B152D154702CA05260EC8111F
:1000C000BD1711241FBECFEFD8E0DEBFCDBF12E0B9
:1000D000A0E0B1E0EEE4F7E302C005900D92AC338E
:1000E000B107D9F724E0ACE3B2E001C01D92A1351D
:1000F000B207E1F710E0C1E6D0E004C02197FE01AD
:100100000E945C1BCC35D107C9F70E949D170C9447
:100110004E180C940000FC0122813381F901E05C4F
:10012000FF4F80819181329620813181805C9F4F89
:10013000821B930B60E470E00E94261B0895DC0193
:100140001296ED91FC911397DF01A05CBF4F2D91AA
:100150003C91119712968D919C9111972817390710
:1001600039F08D919C91E80FF91F808190E00895FE
:100170008FEF9FEF0895FC01A281B381FD01E05C48
:10018000FF4F208131813296808191812817390774
:1001900071F080819181A80FB91F8C9120813181EC
:1001A0002F5F3F4F2F7333273183208308958FEFC5
:1001B0000895FC018789882329F0A285B3858C9155
:1001C00086FFFBCF178A08950F931F93CF93DF937A
:1001D000FC01A481B5818D01005C1F4FE80188817D
:1001E000998101968F739927AD014E5B5F4FEA01AC
:1001F0002881398182179307D1F3E8012881398159
:10020000A20FB31F6C93A481B581A05CBF4F119660
:100210009C938E93A485B5852C9181E090E0058810
:1002200002C0880F991F0A94E2F7822B8C9381E019
:10023000878B0284F385E02D80818064808381E058
:10024000DF91CF911F910F9108951F920F920FB6DA
:100250000F9211242F933F938F939F93EF93FF93CC
:100260008091C00082FD1CC08091C0029091C102AB
:1002700001968F7399272091C2023091C302821791
:10028000930781F0E091C002F091C1022091C60075
:10029000E058FD4F20839093C1028093C00202C0BA
:1002A0008091C600FF91EF919F918F913F912F9187
:1002B0000F900FBE0F901F9018951F920F920FB6C0
:1002C0000F9211242F933F938F939F93EF93FF935C
:1002D00020917C0230917D0280917E0290917F027C
:1002E0002817390731F48091C1008F7D8093C100B8
:1002F00014C0E0917E02F0917F02E45CFD4F20810A
:1003000080917E0290917F0201968F73992790933E
:100310007F0280937E022093C600FF91EF919F9110
:100320008F913F912F910F900FBE0F901F901895B6
:10033000CF92DF92EF92FF92CF93DF93EC016A01AD
:100340007B01EA85FB8581E090E00E8802C0880F82
:10035000991F0A94E2F7808360E874E88EE190E0E8
:10036000A70196010E943A1BDA01C9010197A10970
:10037000B109B695A795979587959C01211580E1C0
:100380003807C0F5EE81FF813083E885F985208349
:100390001F8AEC85FD85308181E090E0BC010A88F0
:1003A00002C0660F771F0A94E2F7AC010B8802C007
:1003B000440F551F0A94E2F7462B432B9C010C88EF
:1003C00002C0220F331F0A94E2F7242B2083EC850E
:1003D000FD8520810D8802C0880F991F0A94E2F7DD
:1003E000809582238083DF91CF91FF90EF90DF9003
:1003F000CF900895EA85FB85108260E472E48FE077
:1004000090E0A70196010E943A1BDA01C901019709
:10041000A109B109B695A795979587959C01B2CF8B
:10042000FC0184E091E09183808380E892E09383F3
:1004300082838CE392E09583848385EC90E09783BC
:10044000868384EC90E09187808780EC90E09387AE
:100450008287A1ECB0E0B587A48782EC90E0978713
:10046000868786EC90E0918B808B84E0828B83E0A2
:10047000838B87E0848B85E0858B81E0868B1C9263
:1004800040E051EE60E070E0CF010C94980184EC04
:1004900092E00C941002CF93DF93C8EED3E063E0B8
:1004A000898D9A8D0E945805898D9A8DDC01ED9178
:1004B000FC910190F081E02D65EA0995898D9A8D76
:1004C000DC01ED91FC910190F081E02D6AE5099548
:1004D00061E0898D9A8DDF91CF910C946605EF9242
:1004E000FF920F931F93CF93DF937C01162F042F5E
:1004F000C8EED3E0DC016C91898D9A8D0E9458057D
:10050000898D9A8DDC01ED91FC910190F081E02DB7
:1005100068E0099560E0898D9A8D0E94660521E06A
:1005200041E0F7016081898D9A8D0E941005898DC7
:100530009A8DDC01ED91FC910680F781E02D099503
:100540001370212F30E0220F331F43E050E0022EC2
:1005500001C0440F0A94EAF740958423402F01C05C
:10056000440F2A95EAF7182F142BF7016081898D23
:100570009A8D0E945805898D9A8DDC01ED91FC9130
:100580000190F081E02D68E00995898D9A8DDC015C
:10059000ED91FC910190F081E02D612F099561E0D2
:1005A000898D9A8DDF91CF911F910F91FF90EF90E0
:1005B0000C9466050F931F93CF93DF93162F042F90
:1005C000C8EED3E0DC016C91898D9A8D0E945805AC
:1005D000898D9A8D62E0610FDC01ED91FC910190B3
:1005E000F081E02D0995898D9A8DDC01ED91FC91CA
:1005F0000190F081E02D602F099561E0898D9A8D41
:10060000DF91CF911F910F910C946605EF92FF92AD
:100610000F931F93CF93DF938C01E62EF42EC8EE39
:10062000D3E0DC016C91898D9A8D0E945805898DEB
:100630009A8DDC01ED91FC910190F081E02D67E055
:100640000995898D9A8DDC01ED91FC910190F081E5
:10065000E02D6E2D099561E0898D9A8D0E946605C9
:10066000F8016081898D9A8D0E945805898D9A8D37
:10067000DC01ED91FC910190F081E02D66E009959F
:10068000898D9A8DDC01ED91FC910190F081E02D36
:100690006F2D099561E0898D9A8DDF91CF911F9122
:1006A0000F91FF90EF900C9466050F931F93CF93DB
:1006B0008C01DC016C9180910104909102040E94F4
:1006C00058058091010490910204DC01ED91FC91A8
:1006D0000190F081E02D60E00995809101049091F6
:1006E0000204DC01ED91FC910190F081E02D60E0CD
:1006F000099561E080910104909102040E946605D1
:10070000F801608180910104909102040E945805D3
:100710008091010490910204DC01ED91FC91019023
:10072000F081E02D61E0099580910104909102042F
:10073000DC01ED91FC910190F081E02D65E20995DD
:1007400061E080910104909102040E94660540E8F6
:1007500068E1C8010E940603C0E04FEF6C2FC8019A
:100760000E94DA02CF5FC430C1F7CF911F910F9181
:100770000895CF92DF92EF92FF921F93CF93DF9372
:100780007C01142FEB016B01C40ED11CCC15DD05CF
:1007900051F06991D701ED91FC910190F081E02D2C
:1007A000C7010995F3CF812FDF91CF911F91FF9062
:1007B000EF90DF90CF900895FC01ED5BFF4F20811B
:1007C00030E031978081281B310981E01216130631
:1007D0000CF080E008959C01FC01EE5BFF4F9081DE
:1007E000D901AD5BBF4F8C91981740F4D901A90F87
:1007F000B11D12968C919F5F908308958FEF08959D
:10080000FC01EE5BFF4F208131963081231728F4E5
:10081000FC01E20FF11D828108958FEF0895089584
:10082000CF93DF93DC01AA57BF4F2C91203480F483
:10083000EC01CB57DF4F2881820F911DFC01EB5B50
:10084000FF4F608381E0820F88838C9381E001C039
:1008500080E0DF91CF9108951F920F920FB60F9213
:1008600011248F939F93EF93FF938091B900887F1A
:10087000883289F1A0F4803159F130F4882309F4E9
:1008800095C0883029F19DC0883129F1803209F066
:1008900098C08093DC0285ED8093BC003CC080341E
:1008A00009F454C048F48033D9F1883309F089C081
:1008B0008093DC0285EC72C08035E1F1883509F463
:1008C00051C0883409F07DC085ED8093BC0069C0BB
:1008D0008091210310C09091DE028091DD02981773
:1008E00068F4E091DE0281E08E0F8093DE02F0E09A
:1008F000E152FD4F80818093BB002EC08091200388
:10090000882309F447C085ED8093BC008091BC002A
:1009100084FDFCCF54C08091BC0084FDFCCF4FC04F
:100920008093DC0285ED8093BC008091BC0084FD47
:10093000FCCF45C0E091DE0281E08E0F8093DE02A5
:100940008091BB00F0E0E152FD4F80839091DE0288
:100950008091DD02981710F485EC01C085E8809342
:10096000BC002FC0E091DE0281E08E0F8093DE029A
:100970008091BB00F0E0E152FD4F80838091200325
:10098000882341F085ED8093BC008091BC0084FDFC
:10099000FCCF15C081E080931F0384EA8093BC00E4
:1009A0000EC08091BC0084FDFCCF09C01092DC0217
:1009B00085ED8093BC008091BC0084FDFCCF10923B
:1009C0002203FF91EF919F918F910F900FBE0F9097
:1009D0001F90189522E131E0FC0131832083EE5B0A
:1009E000FF4F10823196108231961082EF5BFF4FDD
:1009F000108231961082319610821092220381E08B
:100A00008093200310921F03E9EBF0E080818C7F3C
:100A1000808380E28093B80085E48093BC000895D1
:100A2000309122033111FCCF413408F040E431E031
:100A300030932203209320032FEF2093DC021092A7
:100A4000DE02240F2093DD02309321032091210345
:100A5000660F622B6093210320911F03222341F034
:100A600010921F03209121032093BB0025EC01C0AD
:100A700025EE2093BC00209122032130E1F3209148
:100A8000DE02241710F44091DE02AFEDB2E0FC016B
:100A9000329620E0421721F03D9131932F5FFACF3B
:100AA000FC01EE5BFF4F108231964083842F089546
:100AB000FC01E957FF4F21E02083E354F1096083F3
:100AC000EF5BFF4F1082319610820895CF93DF9332
:100AD000FC01EA57FF4F4081413408F052C0209199
:100AE00022032111FCCF32E03093220360932003D4
:100AF0003FEF3093DC021092DE024093DD02EC0106
:100B0000CB5BDF4FAFEDB2E030E0341721F059910D
:100B10005D933F5FFACF1092210340912103DC01E6
:100B2000AC5BBF4F3C91330F342B3093210330919A
:100B30001F03332341F010921F03309121033093A0
:100B4000BB0035EC01C035EE3093BC003091220380
:100B50003230E1F3DC01AB57BF4F1C921082FC0135
:100B6000E957FF4F10828091DC028F3F79F080912E
:100B7000DC02803241F08091DC02803331F024E0ED
:100B800005C021E003C022E001C023E0822FDF91F5
:100B9000CF91089583E293E00C94EA04E62FF0E00D
:100BA000EE0FFF1FE755FC4F9183808308951F923E
:100BB0000F920FB60F9211242F933F934F935F9391
:100BC0006F937F938F939F93AF93BF93EF93FF9315
:100BD0008091B1039091B203009739F0DC01ED915F
:100BE000FC910190F081E02D0995FF91EF91BF916B
:100BF000AF919F918F917F916F915F914F913F91B5
:100C00002F910F900FBE0F901F9018951F920F926B
:100C10000FB60F9211242F933F934F935F936F93CF
:100C20007F938F939F93AF93BF93EF93FF938091A5
:100C3000BB039091BC03009739F0DC01ED91FC916E
:100C40000190F081E02D0995FF91EF91BF91AF9157
:100C50009F918F917F916F915F914F913F912F91D4
:100C60000F900FBE0F901F901895DC011296ED911A
:100C7000FC9113974685578560897189828996E032
:100C8000980F9D3728F44E5F5F4F6F4F7F4F06C020
:100C900099E8980F4D5F5F4F6F4F7F4F928B129681
:100CA000ED91FC91139746875787608B718B8285F6
:100CB0009385A485B5850196A11DB11D8287938773
:100CC000A487B587089522E231E0FC0131832083B7
:100CD00073836283642F0C94CE056F927F928F9200
:100CE0009F92AF92BF92CF92EF92FF920F931F937A
:100CF000CF93DF93CDB7DEB73C01142FDC01119603
:100D00007C936E9313963C932E9312971596FC92B8
:100D1000EE9214971796BC92AE92169719969C92E3
:100D20008E921897FC0112861386148615861E96DD
:100D30001D921D921D921C92519752961C924889A9
:100D4000BC0143960E946306D301ED91FC9111977B
:100D500010831296ED91FC91139700831496ED91F8
:100D6000FC911597C082DF91CF911F910F91FF9059
:100D7000EF90CF90BF90AF909F908F907F906F90AB
:100D800008952FB7F894FC0166857785808991894D
:100D90002FBF0895FC018FB7F89442855385648571
:100DA0007585A085B1852C910680F781E02D908115
:100DB00090FF02C02F3F99F48FBFB62FA52F942F1D
:100DC0008827820F911DA11DB11DBC01CD0123E01B
:100DD000660F771F881F991F2A95D1F708954F5FD7
:100DE0005F4F6F4F7F4FE8CFCF92DF92EF92FF922E
:100DF0000F931F93CF93DF938C016A017B010E94B5
:100E0000CA06EB01C114D104E104F10481F0C80168
:100E10000E94CA066C1B7D0B683E734098F381E00C
:100E2000C81AD108E108F108C851DC4FEBCFDF91B7
:100E3000CF911F910F91FF90EF90DF90CF90089589
:100E40001F93CF93DF93C8EED3E06BE6898D9A8D25
:100E50000E945805898D9A8DDC01ED91FC910190DD
:100E6000F081E02D60E0099560E0898D9A8D0E9407
:100E7000660521E041E06BE6898D9A8D0E941005A0
:100E8000898D9A8DDC01ED91FC910680F781E02D32
:100E90000995182F6BE6898D9A8D0E945805898DCA
:100EA0009A8DDC01ED91FC910190F081E02D60E0E4
:100EB0000995898D9A8D612F6068DC01ED91FC9117
:100EC0000190F081E02D099561E0898D9A8DDF9187
:100ED000CF911F910C946605CF93DF93D62F6BE6CD
:100EE00080910104909102040E94580580910104B0
:100EF00090910204DC01ED91FC910190F081E02DD4
:100F000062E0099560E080910104909102040E94E2
:100F1000660521E042E06BE68091010490910204B5
:100F20000E9410058091010490910204DC01ED9172
:100F3000FC910680F781E02D0995C82F809101046E
:100F400090910204DC01ED91FC910680F781E02D87
:100F50000995D13091F0D230A1F4C0778C2F90E078
:100F600024E0959587952A95E1F7863091054CF414
:100F7000FC01EC5DFE4F808107C081FF04C087E06B
:100F800003C080E001C086E0DF91CF910895FF9219
:100F90000F931F93CF93DF93F62ED42F6BE68091A0
:100FA0000104909102040E945805809101049091DF
:100FB0000204DC01ED91FC910190F081E02D62E0F2
:100FC000099560E080910104909102040E946605F9
:100FD00021E042E06BE680910104909102040E94BE
:100FE00010058091010490910204DC01ED91FC91C7
:100FF0000680F781E02D0995082F809101049091DA
:101000000204DC01ED91FC910680F781E02D099549
:10101000182FC02FCF77B1E0FB16D1F082E0F81285
:101020001CC0C02FCF70D43079F030F4D23051F0E2
:10103000D33099F4C06211C0D53041F0D63069F494
:10104000C0650BC0C06109C0C06307C0C06405C0F3
:10105000D73011F4126001C01D7F6BE6809101044E
:10106000909102040E94580580910104909102041D
:10107000DC01ED91FC910190F081E02D62E0099599
:101080008091010490910204DC01ED91FC910190AA
:10109000F081E02D6C2F099580910104909102045C
:1010A000DC01ED91FC910190F081E02D612F09951B
:1010B00061E08091010490910204DF91CF911F9132
:1010C0000F91FF900C946605CF93C62F6BE680912D
:1010D0000104909102040E945805809101049091AE
:1010E0000204DC01ED91FC910190F081E02D62E0C1
:1010F000099560E080910104909102040E946605C8
:1011000021E041E06BE680910104909102040E948D
:1011100010058091010490910204DC01ED91FC9195
:101120000680F781E02D0995CC2319F0C82FCD77E3
:1011300003C0C82FCF77C2606BE680910104909105
:1011400002040E9458058091010490910204DC0180
:10115000ED91FC910190F081E02D62E00995809184
:10116000010490910204DC01ED91FC910190F08169
:10117000E02D6C2F099561E08091010490910204AB
:10118000CF910C946605CF92DF92EF92FF921F935E
:10119000CF93DF93EB01CC5ADD40CD3A83E0D80703
:1011A00008F088C06BE680910104909102040E94CF
:1011B00058058091010490910204DC01ED91FC91AD
:1011C0000190F081E02D63E0099560E080910104D9
:1011D000909102040E94660521E041E06BE6809157
:1011E0000104909102040E941005809101049091E5
:1011F0000204DC01ED91FC910680F781E02D099558
:10120000182F27E030E084E1C82ED12CE1E0F0E097
:10121000C9010297760102C0EE0CFF1C8A95E2F725
:10122000CE01B7010E94121B672B51F0CE19DF09C6
:10123000CF01022E01C0880F0A94EAF7182B08C0CC
:10124000CF01022E01C0880F0A94EAF78095182377
:101250002150310921303105D9F66BE68091010426
:10126000909102040E94580580910104909102041B
:10127000DC01ED91FC910190F081E02D63E0099596
:101280008091010490910204DC01ED91FC910190A8
:10129000F081E02D612F099561E08091010490912A
:1012A0000204DF91CF911F91FF90EF90DF90CF90DC
:1012B0000C946605DF91CF911F91FF90EF90DF9026
:1012C000CF900895CF92DF92EF92FF921F93CF932A
:1012D000DF93EB01C652D240C63189E0D80708F04F
:1012E00088C06BE680910104909102040E94580529
:1012F0008091010490910204DC01ED91FC91019038
:10130000F081E02D65E0099560E080910104909105
:1013100002040E94660521E041E06BE68091010431
:10132000909102040E9410058091010490910204A2
:10133000DC01ED91FC910680F781E02D0995182FD5
:1013400027E030E08BE4C82ED12CE1E0F0E0C901C9
:101350000397760102C0EE0CFF1C8A95E2F7CE01DE
:10136000B7010E94121B672B51F0CE19DF09CF0184
:10137000022E01C0880F0A94EAF7182B08C0CF018B
:10138000022E01C0880F0A94EAF780951823215095
:10139000310922303105D9F66BE680910104909134
:1013A00002040E9458058091010490910204DC011E
:1013B000ED91FC910190F081E02D65E0099580911F
:1013C000010490910204DC01ED91FC910190F08107
:1013D000E02D612F099561E0809101049091020454
:1013E000DF91CF911F91FF90EF90DF90CF900C9401
:1013F0006605DF91CF911F91FF90EF90DF90CF9026
:1014000008950F931F93CF93DF93EB01E297CA30B8
:101410008BE0D80708F073C08B016BE68091010464
:10142000909102040E945805809101049091020459
:10143000DC01ED91FC910190F081E02D65E00995D2
:1014400060E080910104909102040E94660521E011
:1014500041E06BE680910104909102040E94100526
:101460008091010490910204DC01ED91FC910680D1
:10147000F781E02D0995C83CD10518F4682F6B7FE2
:1014800005C0E801CA5FD109682F6460C436D10580
:1014900010F46D7F03C0C456D1096260E29718F45E
:1014A000C62FCE7F02C0C62FC1606BE680910104BB
:1014B000909102040E9458058091010490910204C9
:1014C000DC01ED91FC910190F081E02D65E0099542
:1014D0008091010490910204DC01ED91FC91019056
:1014E000F081E02D6C2F099561E0809101049091CD
:1014F0000204DF91CF911F910F910C946605DF914B
:10150000CF911F910F9108951F93CF93DF93EC011B
:101510006BE680910104909102040E94580580912D
:10152000010490910204DC01ED91FC910190F081A5
:10153000E02D60E0099560E0809101049091020443
:101540000E94660521E042E06BE6809101049091E3
:1015500002040E9410058091010490910204DC01B4
:10156000ED91FC910680F781E02D0995182F80916F
:10157000010490910204DC01ED91FC910680F78159
:10158000E02D099513FF02C092E001C091E09A831B
:10159000E12FE077F0E054E0F595E7955A95E1F713
:1015A0003197E730F10520F4EC5CFF4F0C945C1BA5
:1015B00019821B8213C091E009C092E0998391E0E7
:1015C0000CC091E0998392E008C092E0998305C035
:1015D000198293E002C0198294E09B83E12FE770A7
:1015E0004E2F50E0FA013197E730F10520F4E55C29
:1015F000FF4F0C945C1B18820EC091E00BC092E070
:1016000009C093E007C094E005C095E003C096E0F0
:1016100001C097E09883982F929596959695937030
:10162000923031F0933021F0913011F01C8201C0E2
:101630009C83282F207330E044E0359527954A9508
:10164000E1F72230310551F02330310549F02130E6
:10165000310511F01D8206C091E003C092E001C087
:1016600093E09D83867090E09595879582309105F3
:1016700049F08330910541F0019711F01E8206C0B8
:1016800081E003C082E001C083E08E83DF91CF91CF
:101690001F910895FC0180810895FC0181810895C6
:1016A000FC0182810895FC0183810895613029F055
:1016B000623031F4FC0185810895FC018481089534
:1016C00083E00895FC0186810895CF93DF93C62FB0
:1016D000D42F6CE280910104909102040E9458057D
:1016E0008091010490910204DC01ED91FC91019044
:1016F000F081E02D6FEF0995809101049091020433
:10170000DC01ED91FC910190F081E02DD11102C03E
:1017100060E001C060E4099561E08091010490916E
:1017200002040E9466056CE280910104909102041B
:101730000E9458058091010490910204DC01ED9112
:10174000FC910190F081E02D6C2F099560E0809173
:101750000104909102040E94660521E041E06CE2E0
:1017600080910104909102040E941005809101046F
:1017700090910204DC01ED91FC910680F781E02D4F
:10178000DF91CF9109940F931F93CF93DF93162F7F
:10179000072FC8EED3E06DE2898D9A8D0E9458051F
:1017A000898D9A8DDC01ED91FC910190F081E02D05
:1017B000602F0995898D9A8DDC01ED91FC91019046
:1017C000F081E02D612F0995898D9A8DDC01ED91D5
:1017D000FC910190F081E02D60E0099561E0898D38
:1017E0009A8DDF91CF911F910F910C9466059F9276
:1017F000AF92BF92CF92DF92EF92FF920F931F931F
:10180000CF93DF9300D000D0CDB7DEB76C01F42EBC
:10181000922EE32E19821A821B821C824A837B83BA
:101820006C836DE280910104909102040E9458053E
:101830008091010490910204DC01ED91FC910190F2
:10184000F081E02D60E009958091010490910204FF
:10185000DC01ED91FC910190F081E02D60E00995B3
:10186000809101049091020464E06F0DDC01ED9120
:10187000FC910190F081E02D09958E010F5F1F4FC3
:101880005E01B5E0AB0EB11C8091010490910204A1
:10189000DC01ED91FC910190F081E02DD8016D917A
:1018A0008D0109950A151B0579F7092D1E2D580183
:1018B000AF0CB11C80910104909102040A151B0524
:1018C00059F0F80161918F01DC01ED91FC910190DB
:1018D000F081E02D0995EECF61E00E94660567E397
:1018E00079E9C6010E94C30B8F2D0F900F900F90C6
:1018F0000F90DF91CF911F910F91FF90EF90DF90AC
:10190000CF90BF90AF909F900895CF93DF931F9299
:10191000CDB7DEB749839E012F5F3F4F41E00E9464
:10192000F70B0F90DF91CF910895AF92BF92DF92A6
:10193000EF92FF920F931F93CF93DF93CDB7DEB754
:10194000C454D1090FB6F894DEBF0FBECDBF8C01D1
:101950008EE0E1E3F1E0DE019F9601900D928A9521
:10196000E1F78EE0EFE3F1E0DE01919601900D9258
:101970008A95E1F788EE93E00E94A0151F928F935D
:101980008AE291E09F938F931F9286E08F937E016E
:101990008DE3E80EF11CFF92EF920E94511849E08E
:1019A00068E070E3C8010E94850C84E024968FAF44
:1019B000249789E025968FAF25979E012D5B3F4F99
:1019C00042E061E170E3C8010E94F70B4DE063E182
:1019D00070E3C8010E94850C4DE064E170E3C8012A
:1019E0000E94850C45E065E170E3C8010E94850C0A
:1019F000FE01BF960FB6F894DEBF0FBECDBF40E02C
:101A00005F018191882389F0A1E0B0E0AC0FBD1F98
:101A1000A40FB11D8C9381E0840FA1E0B0E0AC0F66
:101A2000BD1FA80FB11D4E5F1C92EE15FF0549F7B3
:101A30009E012F5F3F4F66E170E3C8010E94F70BE4
:101A4000D82EFE01B19640E08191882389F0A1E073
:101A5000B0E0AC0FBD1FA40FB11D8C9381E0840FCB
:101A6000A1E0B0E0AC0FBD1FA80FB11D4E5F1C92EE
:101A7000EA15FB0549F76D2D70E06A5E7F4C9E010B
:101A80002F5F3F4FC8010E94F70B8D0DF7019701A3
:101A90002A5F3F4F40E09191992389F0A1E0B0E0A7
:101AA000AC0FBD1FA40FB11D9C9391E0940FA1E05A
:101AB000B0E0AC0FBD1FA90FB11D4E5F1C922E17D9
:101AC0003F0749F7682F70E06A5E7F4C9E012F5FE9
:101AD0003F4FC8010E94F70B42E16BEF70E3C80172
:101AE0000E94850C40E06CEF70E3C8010E94850CF9
:101AF00040E06DEF70E3C8010E94850C46E069E0AC
:101B000070E3C8010E94850C48E067E070E3C801FB
:101B10000E94850C44E06CEE70E3C8010E94850CC5
:101B200041E062EE70E3C8010E94850C65E57AEA47
:101B3000C8010E94C30BCC5BDF4F0FB6F894DEBF29
:101B40000FBECDBFDF91CF911F910F91FF90EF900E
:101B5000DF90BF90AF9008958DED93E0089561E21E
:101B60000E94461185B18C7F85B984B1836084B9A8
:101B7000089569E00E94491181FB992790F989270E
:101B80008170089569E00E944911482F487050E023
:101B9000559547958470282F30E081E04217530710
:101BA00009F480E0089585B181700895CF93DF93A3
:101BB000EC01289A299A40E369E00E947D1145E0F2
:101BC00060E0CE010E947D1140E769E0CE010E94F5
:101BD0007D1140EF69E0CE010E947D1145E050E0AB
:101BE00060E070E088EE93E00E94F406CE0101967A
:101BF0000E94950C45E062E0CE01DF91CF910C94FC
:101C00007D11CF93DF93EC0140E062E00E947D11F3
:101C100040E369E0CE010E947D1129982898DF9168
:101C2000CF91089540E062EE01960E94650B84FF1B
:101C30000BC0E82FF0E085E0F595E7958A95E1F790
:101C4000E35BFE4F8081089581E008958DED93E080
:101C50000C94AF0DFC0181E6838780E6848788E0E1
:101C6000818B0895662311F05C9A08955C9808951D
:101C7000662311F05F9A08955F980895FC01618BC7
:101C800008958BB18295817008958BB1881F882744
:101C9000881F08958BB186FB882780F908959F924D
:101CA000AF92BF92CF92DF92EF92FF920F931F936A
:101CB000CF93DF9300D01F92CDB7DEB78C010E9487
:101CC0002007C8010E94840A580127E0A20EB11C17
:101CD000C5010E941C14C5010E94C31462E0C80122
:101CE0000E94560B811137C00E94AC0D0E94D30D8B
:101CF000811104C00E94AC0D0E94D60D0E94AC0D53
:101D00000E94C20D81111EC00E94AC0D0E94120ED5
:101D1000863038F48430A0F4823081F0833031F0A2
:101D200011C0863049F0873069F408C00E94AC0DBC
:101D30000E94B90D882311F045E005C046E003C0BC
:101D400043E001C040E062E0C8010E94C707C8014B
:101D50000E94840A0AC00E94AC0D0E94D30D882301
:101D600021F00E94AC0D0E94010E61E0C8010E94AA
:101D7000560BF8013C967F01882321F0833021F433
:101D800040E003C041E001C043E060E0C7010E94C1
:101D90006F0262E0C8010E94560B882321F0833055
:101DA00069F540E020C062E0C8010E946C07833002
:101DB00099F020F4813010F141E015C08730F0F443
:101DC00041E061E0C7010E946F0241E062E0C701AB
:101DD0000E946F0241E01DC041E061E0C7010E9426
:101DE0006F0241E005C061E0C7010E946F0240E060
:101DF00062E0C7010E946F0240E00BC040E061E07A
:101E0000C7010E946F0240E062E0C7010E946F02BA
:101E100043E063E0C7010E946F02C8010E94500BBB
:101E2000813029F0823081F4898381E002C0898386
:101E300082E08A831B829E012F5F3F4F79016E01F2
:101E400034E0C30ED11C03C019821A82F3CFF7010C
:101E500091907F01692DC8010E94560B811127C006
:101E6000692DC8010E946C0790E0FC013197E730B2
:101E7000F105E8F4EE5BFF4F0C945C1B6EEEC62E92
:101E800062E0D62E19C050EAC52E5FE0D52E14C0F0
:101E900044E9C42E41E1D42E0FC03CE4C32E3DE101
:101EA000D32E0AC024EDC22E20E3D22E05C0CE14BC
:101EB000DF0469F6C12CD12C0E94A81166E070E005
:101EC0000E94AB11F1E18F9FC0011124F8019687A8
:101ED00085870E94A81167E070E00E94AB11F1E1D4
:101EE0008F9FC0011124F801908B87875C9B0CC0E9
:101EF000F5ECCF16F9E0DF0628F024ECC21A29E051
:101F0000D20A02C0C12CD12CC8010E94620BF80178
:101F10003B967F01811116C0C8010E944A0B873091
:101F200089F0C8010E944A0B823009F0D7C00AC06C
:101F300094EFC92EDD24D394BFCF84ECC82E89E062
:101F4000D82EBACF68E670E1C8010E94C30864EEDB
:101F500072E0C8010E94620962E370E0C8010E9459
:101F6000010AC8010E94530B823021F460E0C801CD
:101F70000E94640840E061E0C7010E946F02F8011E
:101F800085859685843F914050F440E014C040E040
:101F900061E081389C4058F4C7010E946F0243E021
:101FA0000AC060E0C8010E94640840E061E0C70127
:101FB0000E946F0241E060E0C7010E946F02F3E3FC
:101FC000CF16D10420F022E3C21AD10802C0C12CDE
:101FD000D12CF80161896830F1F4F5E9CF16F1E10F
:101FE000DF0690F425ECC21629E0D20678F43FEE25
:101FF000C31632E0D30660F485EFC81681E0D80638
:1020000048F4C12CD12C07C063E005C062E003C0D6
:1020100061E001C060E0C5010E94A7135F9B02C0A0
:10202000C12CD12CF80180858130D1F198F082301B
:1020300009F449C0833009F0BCC060E0C5010E94CA
:102040006414F8018781853009F480C0883009F074
:1020500095C07CC0F8018785908985369105A8F0E8
:1020600041E062E0C7010E946F02F8018785908914
:102070008430904128F52DE0C21624E0D20600F10C
:1020800061E0C5010E94641415C060E0C5010E94B2
:10209000641440E063E0C7010E946F0240E05CC04E
:1020A00041E062E0C7010E946F023DE0C31634E0E8
:1020B000D30610F043E005C060E0C5010E9464143F
:1020C00040E063E04AC060E0C5010E94641440E063
:1020D00063E0C7010E946F0241E03EC0C8010E9458
:1020E000530B823059F42DE0C21624E0D20608F4D6
:1020F00058CF3CE0C31A34E0D30A24C0F8018585E8
:1021000096858430F0E19F07F8F42DE0C21624E0B4
:10211000D20608F43CCF3CE0C31A34E0D30A68E6A8
:1021200070E1C8010E94C30864EE72E0C8010E9419
:10213000620962E370E0C8010E94010A61E0C8011F
:102140000E94640843E032CF41E030CF40E063E0DA
:10215000C7010E946F0243E062E0C7010F900F9039
:102160000F90DF91CF911F910F91FF90EF90DF9033
:10217000CF90BF90AF909F900C946F02843061F429
:1021800040E063E0C7010E946F02F80187859089F3
:102190008436910500F782CF43E063E0C7010E94D7
:1021A0006F02F801878590898436910508F094CFF5
:1021B00075CF0F900F900F90DF91CF911F910F91DE
:1021C000FF90EF90DF90CF90BF90AF909F900895D9
:1021D0000F931F93CF93DF93EC015C9A5E9A5F9805
:1021E0008AB1806D8AB98E01095F1F4F68E0C8010E
:1021F0000E94A71360E0CE010E94640860E0C8015D
:102200000E94641468E670E1CE010E94C30864EE87
:1022100072E0CE010E94620962E370E0CE010E948A
:10222000010A0E944B02CE010C960E945503CE017A
:102230000B960E945503CE01DF91CF911F910F9114
:102240000C944F0E0E94530B91E0823009F090E005
:10225000892F089521E0FC018085813009F020E07C
:10226000822F089507960C946913CF93DF93EC01A6
:102270000E944D0B682FCE01DF91CF910C946C071B
:1022800061E00C94560B62E00C94560BFC016083E9
:102290000895FF920F931F93CF93DF938C01F62E37
:1022A000DC016C9183E293E00E945805C8EED3E014
:1022B000898D9A8DDC01ED91FC910190F081E02DEA
:1022C0006F2D099560E0898D9A8D0E94660521E049
:1022D00041E0F8016081898D9A8D0E941005898DF9
:1022E0009A8DDC01ED91FC910680F781E02DDF9164
:1022F000CF911F910F91FF9009940F931F93CF934C
:10230000DF93062F142FC8EED3E0DC016C91898D8A
:102310009A8D0E945805898D9A8DDC01ED91FC9172
:102320000190F081E02D602F0995898D9A8DDC0157
:10233000ED91FC910190F081E02D612F099561E014
:10234000898D9A8DDF91CF911F910F910C94660525
:102350008FED93E0089580917C00807F682B6093DF
:102360007C0080917A00806480937A0080917A006A
:1023700086FDFCCF809179000895ECE7F0E0808144
:10238000806E8083EAE7F0E080818668808308952C
:102390008FED93E00C94BD11DC01EC91E53D28F448
:1023A000F0E0EB5AFE4F808108958FEF0895FC0115
:1023B00081810895FC01828193810895FC018081CF
:1023C00091810895FC0181E0848393818481891740
:1023D00030F0981B93831282118210820895682F27
:1023E00070E0DF01A60FB71F15962C91203F19F062
:1023F0008F5F8483EBCF482F242F30E0DF01A20FC3
:10240000B31F15965C91261B370BDF01A20FB31F7C
:1024100015965C934F5F491778F3DBCF8596089547
:10242000FB01838150E090E09C012D5F3F4F24171A
:1024300035071CF4AC014C5F5F4F92E080E0292F20
:1024400030E0241735073CF4FB01E20FF31F208135
:10245000820F9F5FF4CF0895AF92BF92CF92DF9229
:10246000EF92FF920F931F93CF93DF93CDB7DEB719
:10247000A0970FB6F894DEBF0FBECDBFE22FF0E0FD
:10248000EA31F1050CF04FC030EF39833AEC3A8372
:102490006B832C8324E0F22E9F012D5F3F4FBE0102
:1024A0006F5F7F4F6B010F2D10E0EE24E394EF0C74
:1024B000201731075CF0D601A00FB11F040F151FC4
:1024C000F801349760816C93FE2CEDCF5C0140E203
:1024D000B6010E941012F601E00FF11F8083F60191
:1024E000EE0DF11D83E5808383E0E82EEF0CF3947D
:1024F000F394F601EF0DF11D8FE080838601802FAC
:102500008C198E1580F4D50199968D919C919A978E
:10251000F80161918F01DC01ED91FC910084F1855E
:10252000E02D0995ECCFA0960FB6F894DEBF0FBE54
:10253000CDBFDF91CF911F910F91FF90EF90DF9072
:10254000CF90BF90AF900895FF920F931F93CF93BA
:10255000DF93EC018B01F42E40E20E9410120F0D6C
:10256000111DF8013397908189130CC084E090E02D
:102570009983888388859F819DA38EA3CE01099628
:1025800098A78FA3DF91CF911F910F91FF9008958E
:10259000AF92BF92CF92DF92EF92FF920F931F9371
:1025A000CF93DF93EC0188819981049729F41982F4
:1025B0001882CE010E94E21182E0E82EF12C93E015
:1025C000C92ED12C8E010B5F1F4FAA24A394B12CCE
:1025D00088819981049709F471C09A818B81981739
:1025E00038F4FE01E90FF11D85819F5F9A8320C0B9
:1025F00089A59AA5DC01ED91FC910190F081E02D77
:102600000995892B09F45AC089A59AA5DC01ED9199
:10261000FC910480F581E02D09959A8121E0290F34
:102620002A83FE01E90FF11D85839B819F5F9B83B8
:102630002881398121303105A1F01CF4232B41F090
:10264000C7CF2230310591F02330310509F1C0CFD9
:10265000803F21F0CE010E94E211BACFB982A88258
:10266000B7CF8A3CB9F7F982E882B2CF4A814430C9
:1026700008F4AECF50E0288530E02A5F3F4F421784
:10268000530709F0A5CF833529F7D982C882A0CF97
:102690004A81443008F49CCF642F70E0288530E0F4
:1026A000295F3F4F6217730709F092CF8F3009F00F
:1026B0008FCFB801CE010E94A4128ACFDF91CF91B3
:1026C0001F910F91FF90EF90DF90CF90BF90AF9050
:1026D00008956AE680910104909102040E945805D1
:1026E0008091010490910204DC01ED91FC91019034
:1026F000F081E02D61E0099560E080910104909106
:1027000002040E94660521E041E06AE6809101042E
:10271000909102040E94100580910104909102049E
:10272000DC01ED91FC910680F781E02D099580FD9B
:102730000CC08077E82FF0E084E0F595E7958A9566
:10274000E1F7E65DFD4F8081089588E00895CF931D
:10275000DF93D62F6AE680910104909102040E94D3
:1027600058058091010490910204DC01ED91FC91E7
:102770000190F081E02D61E0099560E08091010415
:10278000909102040E94660521E041E06AE6809192
:102790000104909102040E9410058091010490911F
:1027A0000204DC01ED91FC910680F781E02D099592
:1027B000C82FCE708D2F90E0FC013197E830F105E5
:1027C00098F4E75BFF4F0C945C1BC0610DC0C062C6
:1027D0000BC0C06309C0C06407C0C06505C0C06647
:1027E00003C0C06701C0C1606AE680910104909196
:1027F00002040E9458058091010490910204DC01BA
:10280000ED91FC910190F081E02D61E009958091BE
:10281000010490910204DC01ED91FC910190F081A2
:10282000E02D6C2F099561E08091010490910204E4
:10283000DF91CF910C946605CF93DF93C8EED3E080
:102840006AE6898D9A8D0E945805898D9A8DDC01E2
:10285000ED91FC910190F081E02D60E00995898D6A
:102860009A8DDC01ED91FC910190F081E02D60E406
:10287000099561E0898D9A8D0E9466056AE6898DC9
:102880009A8D0E945805898D9A8DDC01ED91FC91FD
:102890000190F081E02D60E0099560E0898D9A8DCE
:1028A0000E94660521E041E06AE6898D9A8D0E94CA
:1028B0001005898D9A8DDC01ED91FC910680F781E0
:1028C000E02DDF91CF910994CF93C62F6AE68091D6
:1028D0000104909102040E94580580910104909196
:1028E0000204DC01ED91FC910190F081E02D61E0AA
:1028F000099560E080910104909102040E946605B0
:1029000021E041E06AE680910104909102040E9476
:1029100010058091010490910204DC01ED91FC917D
:102920000680F781E02D0995CC2319F0C82FCD77CB
:1029300003C0C82FCF77C2606AE6809101049091EE
:1029400002040E9458058091010490910204DC0168
:10295000ED91FC910190F081E02D61E0099580916D
:10296000010490910204DC01ED91FC910190F08151
:10297000E02D6C2F099561E0809101049091020493
:10298000CF910C946605CF93DF93EC016AE68091BA
:102990000104909102040E945805809101049091D5
:1029A0000204DC01ED91FC910190F081E02D60E0EA
:1029B000099560E080910104909102040E946605EF
:1029C00021E041E06AE680910104909102040E94B6
:1029D00010058091010490910204DC01ED91FC91BD
:1029E0000680F781E02D0995282F207330E094E0D0
:1029F000359527959A95E1F72230310551F023302E
:102A0000310549F02130310511F0198206C091E0FD
:102A100003C092E001C093E09983E82FEF704E2F3E
:102A200050E04B305105D8F4FA01EF5AFF4F0C94A7
:102A30005C1B188216C091E013C092E011C093E0B5
:102A40000FC094E00DC095E00BC096E009C097E080
:102A500007C098E005C099E003C09AE001C09BE080
:102A6000988386FB992790F99A83881F8827881F67
:102A70008B83DF91CF910895CF93DF93FC0186B1D3
:102A80009481982790FF0EC0A281B381ED01CD59AA
:102A9000DF4F21E02883A35ABF4F282F21702C93AA
:102AA00011961C9291FF0DC0A281B381AC59BF4F0A
:102AB0002C91211105C081FB222720F931E0232729
:102AC0002C9392FF0DC0A281B381AB59BF4F2C91C3
:102AD000211105C082FB222720F931E023272C9306
:102AE00093FF0DC0A281B381AA59BF4F9C91911150
:102AF00005C083FB992790F921E092279C9384835A
:102B0000DF91CF910895A091FF03B0910004ED9162
:102B1000FC9111970084F185E02D682FCD01099576
:102B200081E090E008958091FF0390910004DC0122
:102B3000ED91FC910480F581E02D099590E00895D8
:102B4000CF93DF9360E283E293E00E945805C8EEE2
:102B5000D3E0898D9A8DDC01ED91FC910190F0819B
:102B6000E02D60E0099560E0898D9A8D0E946605F0
:102B700021E041E060E2898D9A8D0E941005898DE7
:102B80009A8DDC01ED91FC910680F781E02D09958D
:102B90008095DF91CF9108952AE332E0FC013183E3
:102BA000208373836283642F0C94CE05DC01ECE6F2
:102BB000F0E080818F60808396B19095916014964B
:102BC0009C931497E8E6F0E0808182608083ED9129
:102BD000FC9111970190F081E02DCD010994CF93E4
:102BE000DF93CDB7DEB766970FB6F894DEBF0FBEA2
:102BF000CDBF7C018C010A5B1F4FC8010E94E81009
:102C0000C701885A9F4F0E94D6151E86812C912C91
:102C10005401412C512C3201C7018D599F4F9E8B7D
:102C20008D8BD701AC59BF4FB88BAF87F701EB59EC
:102C3000FF4FFA8BE98B03969C8B8B8B17019DE5DD
:102C4000290E311CA954B1096D01ED89FE898081DD
:102C5000811110C0AF85B8898C91811118C0E989A4
:102C6000FA898081811113C0AB89BC898C91811153
:102C70000EC024C0ED89FE891082D1018D919C91F6
:102C8000892B29F4C7010E94C1064B015C01EF8525
:102C9000F889808181111082A989BA898C9181116A
:102CA00005C0EB89FC898081882341F0A989BA8914
:102CB0001C92EB89FC891082F1E0FE87C7010E941B
:102CC000C106DC01CB0184199509A609B709893829
:102CD0009341A105B10508F027C18E85811124C15A
:102CE000D1018D919C91892B69F5C8010E94410EFB
:102CF0008823E1F0C7010E94C106DC01CB018819DD
:102D00009909AA09BB098F3E9240A105B10530F08F
:102D100060E0C8010E94380E60E009C020E040E099
:102D200050E063E4C6010E942C120CC061E0C801AF
:102D30000E94320EE1E0F0E0D101ED93FC93F1E06E
:102D4000FE8701C01E86C6010E94C812C6010E94ED
:102D5000DE11049709F079CFC6010E940E12FC0122
:102D600080819181A281B3818A879B87AC87BD874F
:102D7000CE010A960E94CC11803409F4A6C038F422
:102D8000813009F168F0893309F48AC05ECF843458
:102D9000B9F1853409F464C0813409F056CFAAC072
:102DA000CE010A960E94D71181114FCFC7010E9410
:102DB000C10699838A837B836C8324E0AE014F5FD5
:102DC0005F4F60E019C0CE010A960E94D7118111B1
:102DD0003CCF0E94A81166E070E00E94AB1189838D
:102DE0000E94A81167E070E00E94AB118A8322E084
:102DF000AE014F5F5F4F61E0C6010E942C1225CFEC
:102E0000CE010A960E94D71181111FCFC8010E94DE
:102E1000410E8983C8010E94450E8A83C8010E9421
:102E20004A0E8B83C8010E9422118C83C8010E9424
:102E30002A118D83C8010E9435118E83C8010E941A
:102E400032118F83C8010E9440118887C8010E94F7
:102E50004311898729E0AE014F5F5F4F64E4CCCF17
:102E6000CE010A960E94D7118111EFCE0E94AC0DBF
:102E70000E94D30D89830E94AC0D0E94B90D8A83F4
:102E80000E94AC0D0E94C20D8B830E94AC0D0E946B
:102E9000120E8C8324E0AE014F5F5F4F65E4ACCF30
:102EA000CE010A960E94D711813009F0CECECE0114
:102EB0000A960E94DA1161E0DC018C91811101C057
:102EC00060E0C8010E94320EC0CECE010A960E9478
:102ED000D711813009F0B9CECE010A960E94DA11DD
:102EE00061E0FC018081811101C060E0C8010E94A5
:102EF000380EABCECE010A960E94D711813009F070
:102F0000A4CECE010A960E94DA11DC01EC91E150C8
:102F1000E43028F4F0E0EE5CFD4F608101C068E031
:102F2000C8010E943E0E91CEC7010E94C1062B012E
:102F30003C01C8010E944F0ED3CECF93DF93CDB793
:102F4000DEB72E970FB6F894DEBF0FBECDBF83E875
:102F500095E19A87898783E995E19C878B8783E050
:102F60008C831E861D86CE0101969093500480931B
:102F70004F0488EE93E00E94EF158F929F92AF92DC
:102F8000BF92CF92EF92FF920F93809170000091C9
:102F9000B1004091B0008160C82E0460436089E0B8
:102FA0008F9382EB882E912C97E3A92EB12C20E7EA
:102FB000E22EF12C21EB30E060EB70E088EE93E044
:102FC0000E946D06E8EEF3E084EC92E0908F878B30
:102FD00023E233E0328F218F148E138E158E168EDE
:102FE00020E2278F2FEF20932804109229041092BB
:102FF0002B0410922A0490932D0480932C048EE2CB
:1030000094E00E942A0E44E068EE73E080E494E0CD
:103010000E94CC1581E090E0909346048093450493
:1030200010924704109248041092490410924A04E6
:1030300010924B0410924C0410924D0410924E04C6
:1030400078942091E0033091E1034091E2035091A4
:10305000E3036091E4037091E5038091E6039091AE
:10306000E703A1E00E94991B2093E0033093E10362
:103070004093E2035093E3036093E4037093E5030A
:103080008093E6039093E7030F900F91FF90EF90EA
:10309000CF90BF90AF909F908F900895F8940C942C
:1030A000A51BAEE0B0E0E7E5F8E10C94701B0D89DC
:1030B0001E898F89988D26E02C831A83098397FFB8
:1030C00002C080E090E801979E838D83AE01455E4B
:1030D0005F4F698D7A8DCE0101960E9481184D81D6
:1030E0005E8157FD0AC02F813885421753070CF4C3
:1030F0009A01F801E20FF31F10822E96E4E00C947F
:103100008C1BABE0B0E0E7E8F8E10C94621B6C01CB
:103110007B018A01FC0117821682838181FFCCC169
:10312000CE0101963C01F6019381F70193FD859153
:1031300093FF81917F01882309F4BAC1853239F464
:1031400093FD859193FF81917F01853229F4B6012A
:1031500090E00E94781AE7CF912C212C312CFFE1CE
:10316000F315D8F08B3279F038F4803279F083326D
:10317000A1F4232D20611DC08D3261F0803369F4EC
:10318000232D216016C0832D8260382EE32DE4604C
:103190003E2E2AC0F32DF8601DC037FC2DC020ED57
:1031A000280F2A3040F08E32B9F436FC81C1232D2D
:1031B0002064322E19C036FE06C08AE0989E200D8B
:1031C0001124922E11C0EAE02E9E200D1124222EF1
:1031D000F32DF0623F2E08C08C3621F4832D8068D9
:1031E000382E02C0883641F4F70193FD859193FF94
:1031F00081917F018111B3CF982F9F7D955493309A
:1032000028F40C5F1F4F9FE399830DC0833631F084
:10321000833771F0833509F059C021C0F8018081EE
:1032200089830E5F1F4F88248394912C530113C010
:103230002801F2E04F0E511CF801A080B18036FE4B
:1032400003C0692D70E002C06FEF7FEFC5010E94DF
:103250006D1A4C018201F32DFF773F2E16C0280115
:1032600022E0420E511CF801A080B18036FE03C05E
:10327000692D70E002C06FEF7FEFC5010E94621AF6
:103280004C01F32DF0683F2E820133FC1BC0822DD0
:1032900090E088169906B0F4B60180E290E00E94B2
:1032A000781A2A94F4CFF50137FC859137FE819185
:1032B0005F01B60190E00E94781A21102A9421E063
:1032C000821A91088114910471F7E8C0843611F0D4
:1032D000893641F5F80137FE07C06081718182812E
:1032E00093810C5F1F4F08C060817181072E000C15
:1032F000880B990B0E5F1F4FF32DFF763F2E97FF24
:1033000009C090958095709561957F4F8F4F9F4F25
:10331000F0683F2E2AE030E0A3010E94B41A882E04
:10332000861845C0853731F4232D2F7EB22E2AE032
:1033300030E025C0932D997FB92E8F36C1F018F457
:10334000883579F0B5C0803719F0883721F0B0C0E2
:10335000E92FE061BE2EB4FE0DC0FB2DF460BF2E40
:1033600009C034FE0AC0292F2660B22E06C028E00C
:1033700030E005C020E130E002C020E132E0F80199
:10338000B7FE07C060817181828193810C5F1F4FFE
:1033900006C06081718180E090E00E5F1F4FA30145
:1033A0000E94B41A882E8618FB2DFF773F2E36FE1A
:1033B0000DC0232D2E7FA22E891458F434FE0BC08D
:1033C00032FC09C0832D8E7EA82E05C0B82CA32CFC
:1033D00003C0B82C01C0B92CA4FE0FC0FE01E80D3B
:1033E000F11D8081803321F49A2D997EA92E09C088
:1033F000A2FE06C0B394B39404C08A2D867809F067
:10340000B394A3FC11C0A0FE06C0B21488F4280C2B
:10341000922C9B180EC0B21460F4B60180E290E0CA
:103420000E94781AB394F7CFB21418F42B1802C084
:10343000982C212CA4FE10C0B60180E390E00E94DD
:10344000781AA2FE17C0A1FC03C088E790E002C072
:1034500088E590E0B6010CC08A2D867859F0A1FE6F
:1034600002C08BE201C080E2A7FC8DE2B60190E0D1
:103470000E94781A891438F4B60180E390E00E9423
:10348000781A9A94F7CF8A94F301E80DF11D8081A0
:10349000B60190E00E94781A8110F5CF222009F43D
:1034A00042CEB60180E290E00E94781A2A94F6CFCC
:1034B000F6018681978102C08FEF9FEF2B96E2E1A4
:1034C0000C947E1BFC010590615070400110D8F7F0
:1034D000809590958E0F9F1F0895FC01615070405C
:1034E00001900110D8F7809590958E0F9F1F089539
:1034F0000F931F93CF93DF93FB01238121FD03C023
:103500008FEF9FEF2CC022FF16C046815781248188
:1035100035814217530744F4A081B1819D012F5F8B
:103520003F4F318320838C93268137812F5F3F4F1C
:103530003783268314C08B01EC01FB010084F185E5
:10354000E02D0995892BE1F6D80116968D919C9175
:103550001797019617969C938E931697CE01DF913D
:10356000CF911F910F910895FA01AA27283051F1A8
:10357000203181F1E8946F936E7F6E5F7F4F8F4FA4
:103580009F4FAF4FB1E03ED0B4E03CD0670F781F03
:10359000891F9A1FA11D680F791F8A1F911DA11DE8
:1035A0006A0F711D811D911DA11D20D009F4689421
:1035B0003F912AE0269F11243019305D3193DEF6C9
:1035C000CF010895462F4770405D4193B3E00FD07F
:1035D000C9F7F6CF462F4F70405D4A3318F0495D6A
:1035E00031FD4052419302D0A9F7EACFB4E0A6954D
:1035F0009795879577956795BA95C9F7009761056F
:10360000710508959B01AC010A2E069457954795C4
:1036100037952795BA95C9F7620F731F841F951FB9
:10362000A01D0895AA1BBB1B51E107C0AA1FBB1F09
:10363000A617B70710F0A61BB70B881F991F5A953E
:10364000A9F780959095BC01CD01089597FB072EB1
:1036500016F4009407D077FD09D00E94121B07FCD6
:1036600005D03EF4909581959F4F08957095619592
:103670007F4F0895A1E21A2EAA1BBB1BFD010DC0AE
:10368000AA1FBB1FEE1FFF1FA217B307E407F50712
:1036900020F0A21BB30BE40BF50B661F771F881FEE
:1036A000991F1A9469F760957095809590959B0184
:1036B000AC01BD01CF010895EE0FFF1F0590F491FD
:1036C000E02D09942F923F924F925F926F927F92DA
:1036D0008F929F92AF92BF92CF92DF92EF92FF9222
:1036E0000F931F93CF93DF93CDB7DEB7CA1BDB0BCE
:1036F0000FB6F894DEBF0FBECDBF09942A88398873
:1037000048885F846E847D848C849B84AA84B98479
:10371000C884DF80EE80FD800C811B81AA81B98185
:10372000CE0FD11D0FB6F894DEBF0FBECDBFED0199
:1037300008950024A7FD00942A0F301D401D501D40
:0E374000601D701D801D901D0895F894FFCF30
:10374E00000000008B009F00BB00D900E4000000C9
:10375E0000001004B903DC03EB0300040F040000A7
:10376E00000035060102030405064242253033757A
:10377E0000534354205061646572626F726E004450
:10378E00756F7665726F204265426F740001020399
:10379E0004050607000001FFFFFFFFFFFFFFFFFF0D
:1037AE00FFFFFFFFFF1011FF131415FFFFFFFFFFB9
:1037BE00FFFFFFFFFFFFFFFFFFFFFFFFFFFFFFFF0B
:1037CE00FFFFFFFFFFFFFFFFFFFFFFFFFFFF39FFC1
:1037DE00FFFFFFFFFF404142434445FFFFFFFFFF56
:1037EE00FFFFFFFFFFFFFFFFFFFFFFFFFFFFFFFFDB
:1037FE00FFFFFFFFFF60FFFFFFFFFFFFFFFFFFFF6A
:10380E00FFFFFFFFFF70717273747576FFFFFFFF8E
:10381E00FFFFFFFFFF808182FFFFFFFFFFFFFFFF24
:10382E00FFFFFFFFFF9091FFFFFFFFFFFFFFFFFF77
:10383E00FFFFFFFFFFA0A1FFFFFFFFFFFFFFFFFF47
:10384E00FFFFFFFFFFFFFFFFFFFFFFFFFFFFFFFF7A
:10385E00FFFFFFFFFFC0C1C2C3C4FFFFFFFFFFFF9B
:10386E00FFFFFFFFFFD0D1D2D3D400010203040526
:0C387E00060700010203000000003C15DA
:00000001FF
