:100000000C9447000C946F000C946F000C946F00DC
:100010000C944F040C946F000C946F000C946F00C0
:100020000C946F000C946F000C946F000C947E0481
:100030000C946F000C946F000C946F000C946F0084
:100040000C946F000C946F000C940B010C94430102
:100050000C946F000C946F000C946F000C946F0064
:100060000C94A4020C946F0000060706F905FC0529
:100070000306F405F6050B0634063B062D0630068E
:10008000370628062A063F062D024204A50B112436
:100090001FBECFEFD8E0DEBFCDBF12E0A0E0B1E0E1
:1000A000E6ECFBE102C005900D92A030B107D9F754
:1000B00024E0A0E0B2E001C01D92A830B207E1F751
:1000C00010E0C7E4D0E004C02197FE010E94C00DFB
:1000D000C434D107C9F70E94850B0C94C20B0C9451
:1000E0000000FC0122813381F901E05CFF4F808137
:1000F0009181329620813181805C9F4F821B930BCE
:1001000060E470E00E948A0D0895DC011296ED9182
:10011000FC911397DF01A05CBF4F2D913C9111978B
:1001200012968D919C9111972817390739F08D916E
:100130009C91E80FF91F808190E008958FEF9FEF69
:100140000895FC01A281B381FD01E05CFF4F208195
:1001500031813296808191812817390771F0808131
:100160009181A80FB91F8C91208131812F5F3F4F62
:100170002F7333273183208308958FEF0895FC0177
:100180008789882329F0A285B3858C9186FFFBCFD0
:10019000178A08950F931F93CF93DF93FC01A481D7
:1001A000B5818D01005C1F4FE8018881998101961E
:1001B0008F739927AD014E5B5F4FEA01288139812A
:1001C00082179307D1F3E80128813981A20FB31F69
:1001D0006C93A481B581A05CBF4F11969C938E93C4
:1001E000A485B5852C9181E090E0058802C0880F38
:1001F000991F0A94E2F7822B8C9381E0878B02840B
:10020000F385E02D80818064808381E0DF91CF9150
:100210001F910F9108951F920F920FB60F92112404
:100220002F933F938F939F93EF93FF938091C00001
:1002300082FD1CC0809184029091850201968F738B
:10024000992720918602309187028217930781F0C7
:10025000E0918402F09185022091C600EC5BFD4F95
:100260002083909385028093840202C08091C6000F
:10027000FF91EF919F918F913F912F910F900FBE22
:100280000F901F9018951F920F920FB60F92112486
:100290002F933F938F939F93EF93FF93209140026F
:1002A0003091410280914202909143022817390710
:1002B00031F48091C1008F7D8093C10014C0E09122
:1002C0004202F0914302E050FE4F208180914202B1
:1002D0009091430201968F739927909343028093E4
:1002E00042022093C600FF91EF919F918F913F9121
:1002F0002F910F900FBE0F901F901895CF92DF9205
:10030000EF92FF92CF93DF93EC016A017B01EA85C4
:10031000FB8581E090E00E8802C0880F991F0A9447
:10032000E2F7808360E874E88EE190E0A70196012F
:100330000E949E0DDA01C9010197A109B109B69584
:10034000A795979587959C01211580E13807C0F501
:10035000EE81FF813083E885F98520831F8AEC8553
:10036000FD85308181E090E0BC010A8802C0660F03
:10037000771F0A94E2F7AC010B8802C0440F551FA7
:100380000A94E2F7462B432B9C010C8802C0220FF3
:10039000331F0A94E2F7242B2083EC85FD8520810E
:1003A0000D8802C0880F991F0A94E2F78095822376
:1003B0008083DF91CF91FF90EF90DF90CF900895F1
:1003C000EA85FB85108260E472E48FE090E0A7018B
:1003D00096010E949E0DDA01C9010197A109B10998
:1003E000B695A795979587959C01B2CFFC0184E0BF
:1003F00091E09183808384E492E09383828380E020
:1004000092E09583848385EC90E09783868384ECE7
:1004100090E09187808780EC90E093878287A1ECC1
:10042000B0E0B587A48782EC90E09787868786EC5A
:1004300090E0918B808B84E0828B83E0838B87E0DC
:10044000848B85E0858B81E0868B1C9240E051EEA9
:1004500060E070E0CF010C947E0188E892E00C949B
:10046000F601CF92DF92EF92FF921F93CF93DF932B
:100470007C01142FEB016B01C40ED11CCC15DD05E2
:1004800051F06991D701ED91FC910190F081E02D3F
:10049000C7010995F3CF812FDF91CF911F91FF9075
:1004A000EF90DF90CF900895FC01ED5BFF4F20812E
:1004B00030E031978081281B310981E01216130644
:1004C0000CF080E008959C01FC01EE5BFF4F9081F1
:1004D000D901AD5BBF4F8C91981740F4D901A90F9A
:1004E000B11D12968C919F5F908308958FEF0895B0
:1004F000FC01EE5BFF4F208131963081231728F4F9
:10050000FC01E20FF11D828108958FEF0895089597
:10051000CF93DF93DC01AA57BF4F2C91203480F496
:10052000EC01CB57DF4F2881820F911DFC01EB5B63
:10053000FF4F608381E0820F88838C9381E001C04C
:1005400080E0DF91CF9108951F920F920FB60F9226
:1005500011248F939F93EF93FF938091B900887F2D
:10056000883289F1A0F4803159F130F4882309F4FC
:1005700095C0883029F19DC0883129F1803209F079
:1005800098C08093A00285ED8093BC003CC080346D
:1005900009F454C048F48033D9F1883309F089C094
:1005A0008093A00285EC72C08035E1F1883509F4B2
:1005B00051C0883409F07DC085ED8093BC0069C0CE
:1005C0008091E50210C09091A2028091A10298173B
:1005D00068F4E091A20281E08E0F8093A202F0E025
:1005E000ED55FD4F80818093BB002EC08091E402C9
:1005F000882309F447C085ED8093BC008091BC003E
:1006000084FDFCCF54C08091BC0084FDFCCF4FC062
:100610008093A00285ED8093BC008091BC0084FD96
:10062000FCCF45C0E091A20281E08E0F8093A20230
:100630008091BB00F0E0ED55FD4F80839091A202C8
:100640008091A102981710F485EC01C085E8809391
:10065000BC002FC0E091A20281E08E0F8093A20225
:100660008091BB00F0E0ED55FD4F80838091E40266
:10067000882341F085ED8093BC008091BC0084FD0F
:10068000FCCF15C081E08093E30284EA8093BC0034
:100690000EC08091BC0084FDFCCF09C01092A00266
:1006A00085ED8093BC008091BC0084FDFCCF10924E
:1006B000E602FF91EF919F918F910F900FBE0F90E7
:1006C0001F90189522E131E0FC0131832083EE5B1D
:1006D000FF4F10823196108231961082EF5BFF4FF0
:1006E000108231961082319610821092E60281E0DB
:1006F0008093E4021092E302E9EBF0E080818C7FCA
:10070000808380E28093B80085E48093BC000895E4
:100710003091E6023111FCCF413408F040E431E081
:100720003093E6022093E4022FEF2093A002109270
:10073000A202240F2093A1023093E5022091E5024A
:10074000660F622B6093E5022091E302222341F0C1
:100750001092E3022091E5022093BB0025EC01C03A
:1007600025EE2093BC002091E6022130E1F3209198
:10077000A202241710F44091A202A3EAB2E0FC0105
:10078000329620E0421721F03D9131932F5FFACF4E
:10079000FC01EE5BFF4F108231964083842F089559
:1007A000FC01E957FF4F21E02083E354F109608306
:1007B000EF5BFF4F1082319610820895CF93DF9345
:1007C000FC01EA57FF4F4081413408F052C02091AC
:1007D000E6022111FCCF32E03093E6026093E4029E
:1007E0003FEF3093A0021092A2024093A102EC01CD
:1007F000CB5BDF4FA3EAB2E030E0341721F0599130
:100800005D933F5FFACF1092E5024091E502DC0173
:10081000AC5BBF4F3C91330F342B3093E5023091EA
:10082000E302332341F01092E3023091E50230936A
:10083000BB0035EC01C035EE3093BC003091E602D0
:100840003230E1F3DC01AB57BF4F1C921082FC0148
:10085000E957FF4F10828091A0028F3F79F080917D
:10086000A002803241F08091A002803331F024E078
:1008700005C021E003C022E001C023E0822FDF9108
:10088000CF91089587EE92E00C946203E62FF0E09A
:10089000EE0FFF1FE359FC4F9183808308951F9251
:1008A0000F920FB60F9211242F933F934F935F93A4
:1008B0006F937F938F939F93AF93BF93EF93FF9328
:1008C0008091750390917603009739F0DC01ED91EA
:1008D000FC910190F081E02D0995FF91EF91BF917E
:1008E000AF919F918F917F916F915F914F913F91C8
:1008F0002F910F900FBE0F901F9018951F920F927F
:100900000FB60F9211242F933F934F935F936F93E2
:100910007F938F939F93AF93BF93EF93FF938091B8
:10092000830390918403009739F0DC01ED91FC91F1
:100930000190F081E02D0995FF91EF91BF91AF916A
:100940009F918F917F916F915F914F913F912F91E7
:100950000F900FBE0F901F90189568E68091A3032B
:100960009091A4030E94D0038091A3039091A403CB
:10097000DC01ED91FC910190F081E02D65E7099596
:1009800060E08091A3039091A4030E94DE0321E024
:1009900041E068E68091A3039091A4030E9488033C
:1009A0008091A3039091A403DC01ED91FC9106805A
:1009B000F781E02D0995883641F568E68091A3031B
:1009C0009091A4030E94D0038091A3039091A4036B
:1009D000DC01ED91FC910190F081E02D6BE6099531
:1009E0008091A3039091A403DC01ED91FC9101900F
:1009F000F081E02D60E0099561E08091A303909182
:100A0000A4030E94DE0381E0089580E00895EF9240
:100A1000FF920F931F93CF93DF93CDB7DEB760970D
:100A20000FB6F894DEBF0FBECDBF68E68091A3037A
:100A30009091A4030E94D0038091A3039091A403FA
:100A4000DC01ED91FC910190F081E02D6BE30995C3
:100A500060E08091A3039091A4030E94DE0321E053
:100A600048E068E68091A3039091A4030E94880364
:100A70008E01075F1F4F7E01B1E1EB0EF11C8091EB
:100A8000A3039091A403DC01ED91FC910680F78112
:100A9000E02D0995F80181938F01EE15FF0579F797
:100AA00029853A853227232732273A8329834B85A4
:100AB0005C855427452754275C834B83ED85FE8551
:100AC000FE27EF27FE27FE83ED838F8598899827E1
:100AD0008927982784589F4C64E571E00E948A0D0D
:100AE000862F78873A815C816E2F7E81988560960B
:100AF0000FB6F894DEBF0FBECDBFDF91CF911F912F
:100B00000F91FF90EF900895FC0136B194819327E7
:100B10008481232F209586958227292F2C7089F098
:100B2000A281B3819D964D915C919E9782FF03C0F7
:100B30004150510902C04F5F5F4F9E965C934E93A8
:100B40009D97937099F0A281B38180FF06C09F9614
:100B50008D919C91D097019605C09F968D919C9107
:100B6000D0970197D0969C938E939F973483089546
:100B70002FB7F894FC0172876187528B418B2FBF8E
:100B80000895CF92DF92EF92FF920F931F93FC0193
:100B90008FB7F89441A352A363A374A305A316A32C
:100BA00027A330A7C1A6D2A6E3A6F4A68FBF1F91A4
:100BB0000F91FF90EF90DF90CF9008952FB7F894AA
:100BC000FC0181A992A92FBF08952FB7F894FC01C9
:100BD00083A994A92FBF089568307105F8F4FB012B
:100BE000EC5CFF4F0C94C00D5A9A04C040955A9883
:100BF00005C05A985F9812C040955A9A5F9A0EC0E5
:100C00008BB18B730AC05E9A5F985A9A07C05E9A3E
:100C10005F985A9803C08BB1846C8BB962307105B0
:100C200030F06430710519F06730710521F417BC9C
:100C300084B58F7303C047BD84B5806884BD0895B3
:100C400068307105F8F4FB01E45CFF4F0C94C00DB3
:100C50005B9804C040955B9A05C05B9A5C9812C093
:100C600040955B985C9A0EC08BB1877C0AC05D9AF8
:100C70005C985B9807C05D9A5C985B9A03C08BB1E7
:100C800088638BB96230710530F06430710519F0FA
:100C90006730710521F418BC84B58F7C03C048BD52
:100CA00084B5806284BD08952F923F924F925F92E7
:100CB0006F927F928F929F92AF92BF92CF92DF926C
:100CC000EF92FF920F931F93CF93DF93CDB7DEB7D1
:100CD0002B970FB6F894DEBF0FBECDBF9B878A87D8
:100CE000DC0112962D903C901397F10185A596A5F5
:100CF00014962D913C911597281B390BB901032EA1
:100D0000000C880B990B1896CD90DD90ED90FC901F
:100D10001B97C60ED71EE81EF91E1896CD92DD92BF
:100D2000ED92FC921B9716964D915C911797890155
:100D3000041B150B17963C932E9316975C968D907B
:100D40009D90AD90BC905F9790962D913D914D9167
:100D50005C91939729833A834B835C8394962D917E
:100D60003D914D915C9197972D833E834F8358879A
:100D70000E94680CA50194010E941D0D2B013C01ED
:100D8000C701B6010E94680C29813A814B815C81C0
:100D90000E941D0D9B01AC01C301B2010E94C60B54
:100DA0006B017C01B801110F880B990B0E94680C34
:100DB0002D813E814F8158850E941D0D9B01AC0104
:100DC000C701B6010E94C60BEA85FB8524893589D7
:100DD000468957890E94C60B6B017C0120E030E0F8
:100DE0004FE753E40E94320C87FF25C020E030E03B
:100DF0004FE753ECC701B6010E94180D181634F0E6
:100E0000C12CD12C9FE7E92E93ECF92EAA85BB8546
:100E10005496CD92DD92ED92FC92579720E030E00F
:100E2000A901C701B6010E94320C87FF10C0C7019B
:100E3000B60190580EC080E090E0AFE7B3E4EA85D9
:100E4000FB85848B958BA68BB78B6C017D01C701CD
:100E5000B6010E94370C6987F10187A590A9AA8580
:100E6000BB851C964D915C911D97481B590BBA018F
:100E7000052E000C880B990B50964D905D906D904F
:100E80007C905397460E571E681E791EFD01408ABE
:100E9000518A628A738A268537858A01021B130B61
:100EA000578746870E94680CA50194010E941D0D7A
:100EB0004B015C01C301B2010E94680C29813A8197
:100EC0004B815C810E941D0D9B01AC01C501B401E9
:100ED0000E94C60B4B015C01B801110F880B990BE6
:100EE0000E94680C2D813E814F8158850E941D0D06
:100EF0009B01AC01C501B4010E94C60BAA85BB854C
:100F000058962D913D914D915C915B970E94C60B37
:100F10004B015C0120E030E04FE753E40E94320CCB
:100F200087FF23C020E030E04FE753ECC501B40158
:100F30000E94180D181634F0812C912C8FE7A82EE2
:100F400083ECB82EEA85FB85808E918EA28EB38EBF
:100F500020E030E0A901C501B4010E94320C87FFF6
:100F600010C0C501B40190580EC080E090E0AFE71A
:100F7000B3E4EA85FB85808F918FA28FB38F4C01FC
:100F80005D01C501B4010E94370C162F20E030E04E
:100F9000A901C501B4010E94320C87FD03C065E0C0
:100FA00070E002C062E070E0412FC1010E942006A3
:100FB00020E030E0A901C701B6010E94320C87FD94
:100FC00003C065E070E002C062E070E04985AA8578
:100FD000BB8512968D919C9113970E94EC05AA8572
:100FE000BB851296ED91FC91139787A590A994ABC0
:100FF00083AB85A596A592AB81AB10AA17A616A6C2
:1010000015A62B960FB6F894DEBF0FBECDBFDF91AD
:10101000CF911F910F91FF90EF90DF90CF90BF90F5
:10102000AF909F908F907F906F905F904F903F9088
:101030002F90089522E231E0FC01318320837383F5
:1010400062831482642F0C944604DC0114961C9273
:1010500014971296ED91FC91139716A615A610AA57
:1010600017A6E8E6F0E08081826080830895E8E6D4
:10107000F0E080818D7F80830895FC0188E291E01B
:101080009183808373836283158214821782168210
:101090001086118612861386158614861786168684
:1010A000108A118A128A138A148A158A168A178A54
:1010B000108E118E128E138E80E090E0A0E4BFE3BC
:1010C000848F958FA68FB78F10A211A212A213A2A0
:1010D00083E393E3A3EBBEE384A395A3A6A3B7A303
:1010E000642FCF010C944604CF93DF93EC0144E0CE
:1010F000BC010E941A084BE0BE01CE0105960E9479
:101100003D081EA61DA618AA1FA628988BB183709D
:101110008BB9209A8AB18C6F8AB984B5816084BDFD
:1011200085B5816085BD17BC18BCE1E8F0E0808121
:101130008B60808387EF97E090938900809388008D
:10114000ECE6F0E080818F608083DF91CF9108959D
:10115000FC01178216821086118612861386178666
:101160001686108A118A128A138A158214821586AD
:101170001486EFE6F0E08081826080830895CF934B
:10118000DF93EC010E942508CE0105960E94A80875
:10119000289ADF91CF910895EFE6F0E080818D7F6E
:1011A00080830895CF93DF93EC01289805960E94E1
:1011B000CC08CE01DF91CF910C943708DC01EC9183
:1011C000E53D28F4F0E0E65DFE4F808108958FEF65
:1011D0000895FC0181810895FC0182819381089525
:1011E000FC01808191810895FC0181E084839381D9
:1011F0008481891730F0981B9383128211821082A8
:101200000895682F70E0DF01A60FB71F15962C9187
:10121000203F19F08F5F8483EBCF482F242F30E0DD
:10122000DF01A20FB31F15965C91261B370BDF0160
:10123000A20FB31F15965C934F5F491778F3DBCF6E
:1012400085960895FB01838150E090E09C012D5F1D
:101250003F4F241735071CF4AC014C5F5F4F92E001
:1012600080E0292F30E0241735073CF4FB01E20F22
:10127000F31F2081820F9F5FF4CF0895AF92BF923A
:10128000CF92DF92EF92FF920F931F93CF93DF9352
:10129000CDB7DEB7A0970FB6F894DEBF0FBECDBFB7
:1012A000E22FF0E0EA31F1050CF04FC030EF398366
:1012B0003AEC3A836B832C8324E0F22E9F012D5F5E
:1012C0003F4FBE016F5F7F4F6B010F2D10E0EE248B
:1012D000E394EF0C201731075CF0D601A00FB11F8B
:1012E000040F151FF801349760816C93FE2CEDCF2D
:1012F0005C0140E2B6010E942209F601E00FF11FF5
:101300008083F601EE0DF11D83E5808383E0E82EF6
:10131000EF0CF394F394F601EF0DF11D8FE0808351
:101320008601802F8C198E1580F4D50199968D91A8
:101330009C919A97F80161918F01DC01ED91FC91EC
:101340000084F185E02D0995ECCFA0960FB6F894B6
:10135000DEBF0FBECDBFDF91CF911F910F91FF90E8
:10136000EF90DF90CF90BF90AF900895FF920F93D2
:101370001F93CF93DF93EC018B01F42E40E20E9488
:1013800022090F0D111DF8013397908189130CC0AC
:1013900084E090E09983888388859F819DA38EA3B4
:1013A000CE01099698A78FA3DF91CF911F910F913E
:1013B000FF900895AF92BF92CF92DF92EF92FF928B
:1013C0000F931F93CF93DF93EC018881998104974A
:1013D00029F419821882CE010E94F40882E0E82ED6
:1013E000F12C93E0C92ED12C8E010B5F1F4FAA2444
:1013F000A394B12C88819981049709F471C09A81D2
:101400008B81981738F4FE01E90FF11D85819F5FEC
:101410009A8320C089A59AA5DC01ED91FC910190E9
:10142000F081E02D0995892B09F45AC089A59AA568
:10143000DC01ED91FC910480F581E02D09959A8104
:1014400021E0290F2A83FE01E90FF11D85839B818D
:101450009F5F9B832881398121303105A1F01CF4E5
:10146000232B41F0C7CF2230310591F023303105D5
:1014700009F1C0CF803F21F0CE010E94F408BACF1D
:10148000B982A882B7CF8A3CB9F7F982E882B2CF95
:101490004A81443008F4AECF50E0288530E02A5F1E
:1014A0003F4F4217530709F0A5CF833529F7D9825B
:1014B000C882A0CF4A81443008F49CCF642F70E0EA
:1014C000288530E0295F3F4F6217730709F092CFFC
:1014D0008F3009F08FCFB801CE010E94B6098ACFB4
:1014E000DF91CF911F910F91FF90EF90DF90CF9000
:1014F000BF90AF900895A091A103B091A203ED9188
:10150000FC9111970084F185E02D682FCD0109959C
:1015100081E090E008958091A1039091A203DC0105
:10152000ED91FC910480F581E02D099590E00895FE
:10153000CF93DF93CDB7DEB768970FB6F894DEBFD1
:101540000FBECDBF5C013C0184E6680E711CC30177
:101550000E94AD044501E4E08E0E911CFFE2AF0E47
:10156000B11CC4010E94DA09C4010E94F00804976A
:10157000C1F7C4010E942009FC0180819181A281F0
:10158000B381898B9A8BAB8BBC8BCE0141960E9429
:10159000DE08813109F44FC030F4882309F483C098
:1015A000803149F0DECF8431E1F0803209F48BC024
:1015B0008331B9F65AC0CE0141960E94E9088130C4
:1015C00081F6CE0141960E94EC08FC0180818111D8
:1015D00004C0C5010E94D208C4CFC5010E94BF0843
:1015E000C0CFCE0141960E94E9088C3009F0B9CFF6
:1015F000CE0141960E94EC08FC01608171818281DC
:1016000093810E94C60D1B012C0164817581868126
:1016100097810E94C60D8B019C0160857185828532
:1016200093850E94C60D6B017C01B201A101C50129
:101630000E94C10596CFCE0141960E94E9088430F0
:1016400009F08FCFCE0141960E94EC08FC01428147
:101650005381542745275427608171817627672756
:101660007627C5010E94B8057CCFCE0141960E9425
:10167000E908811176CFC5010E94DE05988F8F8B16
:10168000C5010E94E5059E8B8D8B888D89838F898E
:101690008A838E898B838D898C8324E0AE014F5F92
:1016A0005F4F63E12EC0CE0141960E94E90881118F
:1016B00058CF19821A821B821C8224E0AE014F5F30
:1016C0005F4F60E01EC0CE0141960E94E908811183
:1016D00048CFC3010E94070529873A874B875C875B
:1016E0006D877E878F87988B39832A835B834C83B2
:1016F0007D836E839F83888728E0AE014F5F5F4FB5
:1017000060E2C4010E943E092CCFCF93DF93CDB796
:10171000DEB72E970FB6F894DEBF0FBECDBF8BE7B6
:101720009AE09A8789878BE89AE09C878B8783E089
:101730008C831E861D86CE010196909307048093AC
:10174000060481EA93E00E94980AE1EAF3E088E85F
:1017500092E09183808327EE32E0338322831582E7
:1017600014821682178220E220872FEF21A712A66B
:1017700014A613A696A785A780ED93E00E9474088F
:1017800078940895F8940C94E10D5058BB27AA273B
:101790000E94DD0B0C94DE0C0E94D00C38F00E94ED
:1017A000D70C20F039F49F3F19F426F40C94CD0C9B
:1017B0000EF4E095E7FB0C94C70CE92F0E94EF0CA8
:1017C00058F3BA17620773078407950720F079F476
:1017D000A6F50C94110D0EF4E0950B2EBA2FA02D4A
:1017E0000B01B90190010C01CA01A0011124FF27CE
:1017F000591B99F0593F50F4503E68F11A16F040C9
:10180000A22F232F342F4427585FF3CF46953795C7
:101810002795A795F0405395C9F77EF41F16BA0B8C
:10182000620B730B840BBAF09150A1F0FF0FBB1F3A
:10183000661F771F881FC2F70EC0BA0F621F731F83
:10184000841F48F4879577956795B795F7959E3FE0
:1018500008F0B0CF9395880F08F09927EE0F979571
:10186000879508950E94A30C08F481E008950E94D2
:10187000F70C88F09F5798F0B92F9927B751B0F01F
:10188000E1F0660F771F881F991F1AF0BA95C9F704
:1018900014C0B13091F00E94110DB1E008950C9484
:1018A000110D672F782F8827B85F39F0B93FCCF337
:1018B000869577956795B395D9F73EF49095809581
:1018C000709561957F4F8F4F9F4F0895E89409C0A1
:1018D00097FB3EF490958095709561957F4F8F4F63
:1018E0009F4F9923A9F0F92F96E9BB279395F69579
:1018F000879577956795B795F111F8CFFAF4BB0FF7
:1019000011F460FF1BC06F5F7F4F8F4F9F4F16C05A
:10191000882311F096E911C0772321F09EE8872FE4
:10192000762F05C0662371F096E8862F70E060E0A0
:101930002AF09A95660F771F881FDAF7880F969519
:10194000879597F90895990F0008550FAA0BE0E8BD
:10195000FEEF16161706E807F907C0F01216130671
:10196000E407F50798F0621B730B840B950B39F4B1
:101970000A2661F0232B242B252B21F408950A2617
:1019800009F4A140A6958FEF811D811D089597F957
:101990009F6780E870E060E008959FEF80EC089515
:1019A00000240A941616170618060906089500243E
:1019B0000A9412161306140605060895092E0394B8
:1019C000000C11F4882352F0BB0F40F4BF2B11F42C
:1019D00060FF04C06F5F7F4F8F4F9F4F089557FD8B
:1019E0009058440F551F59F05F3F71F04795880F8D
:1019F00097FB991F61F09F3F79F087950895121624
:101A000013061406551FF2CF4695F1DF08C01616CF
:101A100017061806991FF1CF869571056105089480
:101A20000895E894BB2766277727CB0197F9089597
:101A30000E94A30C08F48FEF08950E94300D0C94BF
:101A4000DE0C0E94D00C38F00E94D70C20F09523B9
:101A500011F00C94C70C0C94CD0C11240C94120DA5
:101A60000E94EF0C70F3959FC1F3950F50E0551F46
:101A7000629FF001729FBB27F00DB11D639FAA27E3
:101A8000F00DB11DAA1F649F6627B00DA11D661F32
:101A9000829F2227B00DA11D621F739FB00DA11D53
:101AA000621F839FA00D611D221F749F3327A00D0D
:101AB000611D231F849F600D211D822F762F6A2FA9
:101AC00011249F5750409AF0F1F088234AF0EE0F0E
:101AD000FF1FBB1F661F771F881F91505040A9F73B
:101AE0009E3F510580F00C94C70C0C94120D5F3F83
:101AF000E4F3983ED4F3869577956795B795F79577
:101B0000E7959F5FC1F7FE2B880F911D96958795EE
:101B100097F9089597FB072E16F4009407D077FDE8
:101B200009D00E94CD0D07FC05D03EF4909581951B
:101B30009F4F0895709561957F4F0895A1E21A2EE9
:101B4000AA1BBB1BFD010DC0AA1FBB1FEE1FFF1F61
:101B5000A217B307E407F50720F0A21BB30BE40BB1
:101B6000F50B661F771F881F991F1A9469F76095F8
:101B70007095809590959B01AC01BD01CF010895B2
:101B8000EE0FFF1F0590F491E02D09946927962729
:101B900069277827872778270895AA1BBB1B51E15F
:101BA00007C0AA1FBB1FA617B70710F0A61BB70BCD
:101BB000881F991F5A95A9F780959095BC01CD0172
:061BC0000895F894FFCF28
:101BC6000000000071008500A100BF00CA000000EF
:101BD6000000880231025402630278028702000084
:101BE600000084050000000054060001FFFFFFFF0F
:101BF600FFFFFFFFFFFFFFFFFFFF1011FF1314158D
:101C0600FFFFFFFFFFFFFFFFFFFFFFFFFFFFFFFFDE
:101C1600FFFFFFFFFFFFFFFFFFFFFFFFFFFFFFFFCE
:101C2600FFFFFFFFFFFFFFFFFFFFFFFFFFFFFFFFBE
:101C3600FFFFFFFFFFFFFFFFFFFFFFFFFFFFFFFFAE
:101C4600FFFFFFFFFFFFFFFFFFFF60FFFFFFFFFF3D
:101C5600FFFFFFFFFFFFFFFFFFFF707172737475D9
:101C660076FFFFFFFFFFFFFFFFFF808182FFFFFF81
:101C7600FFFFFFFFFFFFFFFFFFFF9091FFFFFFFF4B
:101C8600FFFFFFFFFFFFFFFFFFFFA0A1FFFFFFFF1B
:101C9600FFFFFFFFFFFFFFFFFFFFFFFFFFFFFFFF4E
:101CA600FFFFFFFFFFFFFFFFFFFFC0C1C2C3C4FF6F
:101CB600FFFFFFFFFFFFFFFFFFFFD0D1D2D3D4000E
:00000001FF
