:100000000C9438000C9460000C9460000C94600018
:100010000C9460000C94CF040C9460000C9460006D
:100020000C9460000C94FE040C9460000C9460002E
:100030000C9460000C9460000C942D050C946000EE
:100040000C9460000C9460000C94FC000C9434013F
:100050000C9460000C9460000C9460000C946000A0
:100060000C94BA060C9460001E0258087C086D10AF
:1000700011241FBECFEFD8E0DEBFCDBF12E0A0E05D
:10008000B1E0EEE4F2E202C005900D92A231B107B8
:10009000D9F724E0A2E1B2E001C01D92AC35B2076D
:1000A000E1F710E0C8E3D0E004C02197FE010E9410
:1000B0001F11C433D107C9F70E944D100C94711061
:1000C0000C940000FC0122813381F901E05CFF4FB8
:1000D00080819181329620813181805C9F4F821B8B
:1000E000930B60E470E00E9498100895DC01129672
:1000F000ED91FC911397DF01A05CBF4F2D913C91D6
:10010000119712968D919C9111972817390739F004
:100110008D919C91E80FF91F808190E008958FEFF9
:100120009FEF0895FC01A281B381FD01E05CFF4FC8
:10013000208131813296808191812817390771F0B1
:1001400080819181A80FB91F8C91208131812F5F0F
:100150003F4F2F7333273183208308958FEF089506
:10016000FC018789882329F0A285B3858C9186FFBD
:10017000FBCF178A08950F931F93CF93DF93FC0152
:10018000A481B5818D01005C1F4FE80188819981B0
:1001900001968F739927AD014E5B5F4FEA0128816D
:1001A000398182179307D1F3E80128813981A20FA1
:1001B000B31F6C93A481B581A05CBF4F11969C9333
:1001C0008E93A485B5852C9181E090E0058802C0CE
:1001D000880F991F0A94E2F7822B8C9381E0878B1A
:1001E0000284F385E02D80818064808381E0DF914B
:1001F000CF911F910F9108951F920F920FB60F92FA
:1002000011242F933F938F939F93EF93FF938091AC
:10021000C00082FD1CC080919602909197020196C9
:100220008F73992720919802309199028217930732
:1002300081F0E0919602F09197022091C600EA5A6F
:10024000FD4F2083909397028093960202C0809185
:10025000C600FF91EF919F918F913F912F910F9049
:100260000FBE0F901F9018951F920F920FB60F920E
:1002700011242F933F938F939F93EF93FF9320919C
:1002800052023091530280915402909155022817E6
:10029000390731F48091C1008F7D8093C10014C073
:1002A000E0915402F0915502EE5EFD4F2081809165
:1002B00054029091550201968F739927909355029D
:1002C000809354022093C600FF91EF919F918F91EC
:1002D0003F912F910F900FBE0F901F901895CF92C6
:1002E000DF92EF92FF92CF93DF93EC016A017B01E3
:1002F000EA85FB8581E090E00E8802C0880F991F97
:100300000A94E2F7808360E874E88EE190E0A70148
:1003100096010E94AC10DA01C9010197A109B10947
:10032000B695A795979587959C01211580E138078B
:10033000C0F5EE81FF813083E885F98520831F8A2F
:10034000EC85FD85308181E090E0BC010A8802C027
:10035000660F771F0A94E2F7AC010B8802C0440FC6
:10036000551F0A94E2F7462B432B9C010C8802C0D0
:10037000220F331F0A94E2F7242B2083EC85FD859E
:1003800020810D8802C0880F991F0A94E2F780959A
:1003900082238083DF91CF91FF90EF90DF90CF9009
:1003A0000895EA85FB85108260E472E48FE090E0B6
:1003B000A70196010E94AC10DA01C9010197A109B9
:1003C000B109B695A795979587959C01B2CFFC0189
:1003D00080E191E09183808386E592E0938382833C
:1003E00082E192E09583848385EC90E09783868315
:1003F00084EC90E09187808780EC90E093878287FF
:10040000A1ECB0E0B587A48782EC90E0978786875F
:1004100086EC90E0918B808B84E0828B83E0838BF1
:1004200087E0848B85E0858B81E0868B1C9240E0A1
:1004300051EE60E070E0CF010C946F018AE992E028
:100440000C94E701FC0129B130E0C901880F991F24
:10045000282739278481958126FD02C0019601C095
:100460000197958384830895CF92DF92EF92FF9254
:100470000F931F93CF93DF93EC01162F062F07FDE9
:10048000019586EF800F803148F52D813E81C901AD
:10049000330FAA0BBB0B9C01AD018AE0220F331F67
:1004A000441F551F8A95D1F760E078ED81EC92E406
:1004B0000E94AC10C02ED12CE12CF12CCA01B90144
:1004C000A70196010E94AC102E8F612F110F770BA0
:1004D000872F881F8827881F8C8F1D8EDF91CF91D3
:1004E0001F910F91FF90EF90DF90CF900895CF93E1
:1004F000DF93EC016D3870F4AD81BE81262F30E0C2
:100500000E9404112CE830E040E050E00E94CE1040
:100510003E8B2D8BDF91CF9108952EE131E0FC01D0
:100520003183208373836283642F0E94C6048BB15E
:1005300080698BB98AB18F768AB90895DC01EDE6BE
:10054000F0E0908190699083E8E6F0E0908194601B
:100550009083ED91FC9111970190F081E02DCD01F8
:10056000099424E231E0FC013183208373836283A8
:1005700015821482642F0C94C604FC011582148227
:10058000EEE6F0E08081826080830895EF92FF9232
:100590000F931F93CF93DF93EC01FC011192CF01D6
:1005A0000E948008439A3B9885B18C7F85B984B1BD
:1005B000836084B980ED97E09E838D837E01F7E0B0
:1005C000EF0EF11C45E0BE01C7010E948D028E01B5
:1005D000035F1F4F4EE0BE01C8010E94B102DC8BD9
:1005E000CB8B1E8A1D8ADB8FCA8FC7010E949E0299
:1005F000C801DF91CF911F910F91FF90EF900C9464
:10060000BD022FB7F894FC01848195812FBF089516
:10061000CF93DF93EC010D960E9401032CE830E0AC
:10062000DC010E9404112D813E81032E000C440B3D
:10063000550B0E94CE102F3F31054105510509F0A1
:1006400044F4DA01C90157FF05C080E090E0DC0105
:1006500001C08FEFDF91CF9108951F93CF93DF9368
:10066000EC011FB7F894623061F128F4662321F1A0
:10067000613039F02AC0633031F1643031F582E005
:1006800023C001960E9493088881833059F08430FA
:10069000B1F48B858823C9F0CE010D960E94BD026E
:1006A00083E012C08C85882381F0CE010D960E94D4
:1006B00001039E838D8303C001960E9493081882D4
:1006C00004C084E001C081E088831FBFDF91CF9127
:1006D0001F910895CF92DF92EF92FF920F931F9395
:1006E000FC01A48195814AEA5AEABA010AEA1AEAA7
:1006F0009801C9B0000F111F221F331FC4FA8827A9
:1007000080F9082B440F551F661F771F0C2C000C17
:10071000DD08EE08FF08CC24F7FCC394DD24EE24AA
:10072000FF244C295D296E297F296801790181E028
:10073000C81AD108E108F108BEEFCB16BFEFDB06FF
:10074000EB06FB06B0F26A017B0181E0C81AD10812
:10075000E108F108BEEFCB16BFEFDB06EB06FB06A8
:1007600040F281E00F3FBFEF1B072B073B0709F06B
:1007700080E0848381E04F3FBFEF5B076B077B071F
:1007800009F080E085830F3F1F4F2F4F3F4F11F43B
:10079000AA2339F04F3F5F4F6F4F7F4F69F491119C
:1007A0000BC061E0828193811F910F91FF90EF90C8
:1007B000DF90CF900C942D031F910F91FF90EF903D
:1007C000DF90CF9008950F931F93CF93DF93EC01A9
:1007D0000A811B81888199810D960E9401039801ED
:1007E000281B390BC901032E000CAA0BBB0BAC0153
:1007F000BD014F5F5F4F6F4F7F4FE881F9814330FD
:1008000051056105710540F460E0CF01DF91CF91A2
:100810001F910F910C942D03B7FF29C0A6EFBFEFD6
:100820000E94ED1025813681032E000C440B550BE0
:100830000E94CE10DA01C9018897A109B109883D4B
:100840002FEF9207A207B2074CF0833E2FEF9207DB
:10085000A207B2072CF4282F219503C028E201C07B
:100860002EE12E8381E090E09D838C8325C0A6EF4E
:10087000BFEF0E94ED1025813681032E000C440B42
:10088000550B0E94CE10DA01C9018896A11DB11D39
:1008900089329105A105B1055CF48E319105A10560
:1008A000B10524F48EE190E0A0E0B0E0282F01C073
:1008B00028E22E831D821C82DF91CF911F910F9120
:1008C0000895CF92DF92EF92FF920F931F93CF93F1
:1008D000DF93EC01EFB6F8948881823079F018F458
:1008E000813081F007C08330A9F0843019F401E031
:1008F00010E012C0F9800A811B8110C0FE8C0C8DA3
:100900001D8D0CC0CE0143960E94E303F98C0F8924
:10091000188D04C000E010E083E2F82E888188235F
:1009200079F00130110511F48B8504C00115110512
:1009300089F48C85882371F061E0CE010E942D033B
:10094000EFBEDF91CF911F910F91FF90EF90DF905D
:10095000CF9008956E018FEFC81AD80AC6010E9481
:10096000C408882361F08981F81209C08A819B81BB
:100970000817190721F4C6010E949108E1CFF982F6
:100980001B830A83C6010E949908F5CFE62FF0E089
:10099000EE0FFF1FE055FD4F9183808308951F9256
:1009A0000F920FB60F9211242F933F934F935F93A3
:1009B0006F937F938F939F93AF93BF93EF93FF9327
:1009C0008091BA029091BB02009739F0DC01ED9161
:1009D000FC910190F081E02D0995FF91EF91BF917D
:1009E000AF919F918F917F916F915F914F913F91C7
:1009F0002F910F900FBE0F901F9018951F920F927E
:100A00000FB60F9211242F933F934F935F936F93E1
:100A10007F938F939F93AF93BF93EF93FF938091B7
:100A2000C2029091C302009739F0DC01ED91FC9174
:100A30000190F081E02D0995FF91EF91BF91AF9169
:100A40009F918F917F916F915F914F913F912F91E6
:100A50000F900FBE0F901F9018951F920F920FB618
:100A60000F9211242F933F934F935F936F937F9334
:100A70008F939F93AF93BF93EF93FF938091CC029B
:100A80009091CD02009739F0DC01ED91FC9101903D
:100A9000F081E02D0995FF91EF91BF91AF919F916A
:100AA0008F917F916F915F914F913F912F910F9017
:100AB0000FBE0F901F901895DC011296ED91FC91DE
:100AC00013974685578560897189828996E0980FCA
:100AD0009D3728F44E5F5F4F6F4F7F4F06C099E8F8
:100AE000980F4D5F5F4F6F4F7F4F928B1296ED9136
:100AF000FC91139746875787608B718B828593850E
:100B0000A485B5850196A11DB11D82879387A48711
:100B1000B58708952AE231E0FC0131832083738395
:100B20006283642F0C94C6046F927F928F929F927F
:100B3000AF92BF92CF92EF92FF920F931F93CF93FA
:100B4000DF93CDB7DEB73C01142FDC0111967C9307
:100B50006E9313963C932E9312971596FC92EE92F9
:100B600014971796BC92AE92169719969C928E92F5
:100B70001897FC0112861386148615861E961D9200
:100B80001D921D921C92519752961C924889BC014D
:100B900043960E948A05D301ED91FC911197108331
:100BA0001296ED91FC91139700831496ED91FC91B0
:100BB0001597C082DF91CF911F910F91FF90EF9019
:100BC000CF90BF90AF909F908F907F906F9008953F
:100BD0002FB7F894FC0166857785808991892FBFAE
:100BE0000895FC018FB7F894428553856485758517
:100BF000A085B1852C910680F781E02D908190FF32
:100C000002C02F3F99F48FBFB62FA52F942F8827AE
:100C1000820F911DA11DB11DBC01CD0123E0660F06
:100C2000771F881F991F2A95D1F708954F5F5F4F4F
:100C30006F4F7F4FE8CFCF92DF92EF92FF920F93EB
:100C40001F93CF93DF938C016A017B010E94F10512
:100C5000EB01C114D104E104F10481F0C8010E9448
:100C6000F1056C1B7D0B683E734098F381E0C81A58
:100C7000D108E108F108C851DC4FEBCFDF91CF91EB
:100C80001F910F91FF90EF90DF90CF900895CF923A
:100C9000DF92EF92FF921F93CF93DF937C01142F8B
:100CA000EB016B01C40ED11CCC15DD0551F069912F
:100CB000D701ED91FC910190F081E02DC7010995DC
:100CC000F3CF812FDF91CF911F91FF90EF90DF90B5
:100CD000CF900895FC01ED5BFF4F208130E031970C
:100CE0008081281B310981E0121613060CF080E088
:100CF00008959C01FC01EE5BFF4F9081D901AD5B33
:100D0000BF4F8C91981740F4D901A90FB11D1296CD
:100D10008C919F5F908308958FEF0895FC01EE5BA7
:100D2000FF4F208131963081231728F4FC01E20F18
:100D3000F11D828108958FEF08950895CF93DF9379
:100D4000DC01AA57BF4F2C91203480F4EC01CB5723
:100D5000DF4F2881820F911DFC01EB5BFF4F608309
:100D600081E0820F88838C9381E001C080E0DF9175
:100D7000CF9108951F920F920FB60F9211248F9367
:100D80009F93EF93FF938091B900887F883289F118
:100D9000A0F4803159F130F4882309F495C08830EB
:100DA00029F19DC0883129F1803209F098C08093E3
:100DB000E40285ED8093BC003CC0803409F454C04B
:100DC00048F48033D9F1883309F089C08093E40274
:100DD00085EC72C08035E1F1883509F451C0883462
:100DE00009F07DC085ED8093BC0069C08091290326
:100DF00010C09091E6028091E502981768F4E091A6
:100E0000E60281E08E0F8093E602F0E0E951FD4FAB
:100E100080818093BB002EC080912803882309F431
:100E200047C085ED8093BC008091BC0084FDFCCF61
:100E300054C08091BC0084FDFCCF4FC08093E4027D
:100E400085ED8093BC008091BC0084FDFCCF45C043
:100E5000E091E60281E08E0F8093E6028091BB0074
:100E6000F0E0E951FD4F80839091E6028091E50228
:100E7000981710F485EC01C085E88093BC002FC062
:100E8000E091E60281E08E0F8093E6028091BB0044
:100E9000F0E0E951FD4F808380912803882341F0E1
:100EA00085ED8093BC008091BC0084FDFCCF15C013
:100EB00081E08093270384EA8093BC000EC0809178
:100EC000BC0084FDFCCF09C01092E40285ED809344
:100ED000BC008091BC0084FDFCCF10922A03FF91DE
:100EE000EF919F918F910F900FBE0F901F901895CB
:100EF00020E331E0FC0131832083EE5BFF4F108261
:100F00003196108231961082EF5BFF4F108231963E
:100F100010823196108210922A0381E08093280378
:100F200010922703E9EBF0E080818C7F808380E2E0
:100F30008093B80085E48093BC00089530912A0323
:100F40003111FCCF413408F040E431E030932A0302
:100F5000209328032FEF2093E4021092E602240F3F
:100F60002093E5023093290320912903660F622B19
:100F70006093290320912703222341F01092270335
:100F8000209129032093BB0025EC01C025EE20937E
:100F9000BC0020912A032130E1F32091E6022417BE
:100FA00010F44091E602A7EEB2E0FC01329620E098
:100FB000421721F03D9131932F5FFACFFC01EE5B98
:100FC000FF4F108231964083842F0895FC01E9572A
:100FD000FF4F21E02083E354F1096083EF5BFF4F73
:100FE0001082319610820895CF93DF93FC01EA5767
:100FF000FF4F4081413408F052C020912A03211153
:10100000FCCF32E030932A03609328033FEF309304
:10101000E4021092E6024093E502EC01CB5BDF4F65
:10102000A7EEB2E030E0341721F059915D933F5FB5
:10103000FACF1092290340912903DC01AC5BBF4F2A
:101040003C91330F342B3093290330912703332302
:1010500041F010922703309129033093BB0035EC07
:1010600001C035EE3093BC0030912A033230E1F3F9
:10107000DC01AB57BF4F1C921082FC01E957FF4FB8
:1010800010828091E4028F3F79F08091E4028032F7
:1010900041F08091E402803331F024E005C021E08A
:1010A00003C022E001C023E0822FDF91CF91089599
:1010B0008BE293E00C94780783EB93E008958091A2
:1010C0007C00807F682B60937C0080917A00806434
:1010D00080937A0080917A0086FDFCCF8091790020
:1010E0000895ECE7F0E08081806E8083EAE7F0E02D
:1010F000808186688083089583EB93E00C94710867
:10110000FC0110821282118285B5887F85BD16BCD4
:1011100084B5826584BD8AB180668AB942983A9A5C
:101120000895429A0895429885B5887F85BD16BC7A
:101130000895FC0185B5887F85BD16BC8081882314
:1011400011F129B130E0C901880F991F28273927EB
:1011500020743327818192818130910519F4232BEA
:1011600029F007C0892B29F4232B19F085B5806855
:1011700085BD808187BD808190E09595879588BDEC
:1011800085B5856085BD089585B5817008950F93F7
:101190001F93CF938B01C42F61E78091CD03909172
:1011A000CE030E94E6078091CD039091CE03DC012F
:1011B000ED91FC910190F081E02D0115110511F4E4
:1011C00064E001C065E0099561E08091CD039091F4
:1011D000CE030E94F407012BF9F060E78091CD0364
:1011E0009091CE030E94E6078091CD039091CE03AB
:1011F0006C2F63706460DC01ED91FC910190F081D3
:10120000E02D099561E08091CD039091CE03CF91BF
:101210001F910F910C94F407CF911F910F91089596
:10122000CF92DF92EF92FF920F931F93CF93DF93B2
:101230006B01C1E0C40F42E050E060E070E084EB7D
:1012400093E00E941B0664E28091CD039091CE034F
:101250000E94E6078091CD039091CE03DC01ED91D1
:10126000FC910190F081E02D60E009958091CD0323
:101270009091CE03DC01ED91FC910190F081E02D85
:1012800060E009958091CD039091CE03DC01ED9152
:10129000FC910190F081E02D6FEF09958091CD03D5
:1012A0009091CE03DC01ED91FC910190F081E02D55
:1012B0006C2F09958091CD039091CE036C2F619591
:1012C000DC01ED91FC910190F081E02D0995809178
:1012D000CD039091CE03DC01ED91FC910190F08162
:1012E000E02D64ED099500E013EDD0E02197E02EAC
:1012F000F12C8091CD039091CE03EC16FD06E4F421
:10130000EC0CFD1CDC01ED91FC910190F081E02DD5
:10131000D7016C910995882321F0F7018081180F7E
:1013200009C0015041E050E060E070E084EB93E0E0
:101330000E941B060F5FDBCF612F6095DC01ED91F2
:10134000FC910190F081E02D09958091CD03909161
:10135000CE03DC01ED91FC910190F081E02D60E085
:10136000099561E08091CD039091CE03DF91CF91FB
:101370001F910F91FF90EF90DF90CF900C94F407A6
:10138000DF92EF92FF920F931F93CF93DF937B0136
:10139000142FC9E182E0D82ED40E4AE050E060E07C
:1013A00070E084EB93E00E941B0621E04D2D64E287
:1013B0008091CD039091CE030E949E078091CD0332
:1013C0009091CE03DC01ED91FC910680F781E02D38
:1013D0000995082F813099F0D0E0D11769F08091FC
:1013E000CD039091CE03DC01ED91FC910680F78155
:1013F000E02D0995DF5FF1CFC15079F613C0E70109
:10140000E10EF11CCE15DF0569F08091CD039091BE
:10141000CE03DC01ED91FC910680F781E02D09956A
:101420008993F0CF81E0013009F080E0DF91CF9126
:101430001F910F91FF90EF90DF900895CF93DF936E
:1014400000D000D000D0CDB7DEB746E0BE016F5F60
:101450007F4F0E94C00946E050E066E071E0CE0197
:1014600001960E94741021E0892B09F020E0822F60
:1014700026960FB6F894DEBF0FBECDBFDF91CF9199
:101480000895CF93DF93EC010E941009CE01DF9104
:10149000CF910C941E0ACF93DF93EC0186E18883F1
:1014A00088E8898381E08A8343E0BE01CE010E94FF
:1014B000410A882379F048E0BE01CE010E94C009AC
:1014C0008D81853D39F48E81873121F49F819F7311
:1014D00081E009F080E0DF91CF910895CF93DF9311
:1014E000EC0182E0888341E0BE01CE010E94410A06
:1014F0008823A9F04CE0BE01CE010E94C0098D8175
:10150000853D69F48E81833051F446E050E060E01F
:1015100071E0CE010E948A1021E0892B09F020E0C1
:10152000822FDF91CF910895CF93DF93EC0184E177
:10153000888369834A832B8344E0BE01CE010E94E5
:10154000410A882349F048E0BE01CE010E94C0094B
:1015500081E09E81953109F080E0DF91CF9108957F
:10156000CF93DF93EC0186E5888381E0898392E065
:101570009A838B831C828FEF8D838E831F821886C4
:1015800049E0BE01CE010E94410A882371F049E181
:10159000BE01CE010E94C0098D81853D31F48E814E
:1015A000873519F481E09F81911180E0DF91CF911F
:1015B0000895EF92FF920F931F93CF93DF93EC0167
:1015C000142F790180E4888381E0898350E0CE0183
:1015D00002960E94811042E0410FBE01CE010E949E
:1015E000410A811102C010E01BC04CE3BE01CE01D4
:1015F0000E94C0098D81853DB1F78E81813499F7B4
:101600008F818111F0CF1B811350011708F4102F27
:10161000412F50E0BE01685F7F4FC7010E948110DB
:10162000812FDF91CF911F910F91FF90EF9008953F
:10163000DC01EC91E53D28F4F0E0E45CFE4F8081B4
:1016400008958FEF089521E0FC018181811101C08F
:1016500020E0822F0895FC0181810895FC018281A0
:1016600093810895FC01808191810895FC0181E0BE
:10167000848393818481891730F0981B938312822D
:10168000118210820895682F70E0DF01A60FB71F46
:1016900015962C91203F19F08F5F8483EBCF482F54
:1016A000242F30E0DF01A20FB31F15965C91261B9B
:1016B000370BDF01A20FB31F15965C934F5F4917DD
:1016C00078F3DBCF85960895FB01838150E090E0AD
:1016D0009C012D5F3F4F241735071CF4AC014C5F74
:1016E0005F4F92E080E0292F30E0241735073CF46B
:1016F000FB01E20FF31F2081820F9F5FF4CF08955B
:10170000AF92BF92CF92DF92EF92FF920F931F930F
:10171000CF93DF93CDB7DEB7A0970FB6F894DEBFB7
:101720000FBECDBFE22FF0E0EA31F1050CF04FC063
:1017300030EF39833AEC3A836B832C8324E0F22E2A
:101740009F012D5F3F4FBE016F5F7F4F6B010F2DDC
:1017500010E0EE24E394EF0C201731075CF0D60183
:10176000A00FB11F040F151FF801349760816C930F
:10177000FE2CEDCF5C0140E2B6010E94640BF60145
:10178000E00FF11F8083F601EE0DF11D83E58083EC
:1017900083E0E82EEF0CF394F394F601EF0DF11DC6
:1017A0008FE080838601802F8C198E1580F4D501FF
:1017B00099968D919C919A97F80161918F01DC0126
:1017C000ED91FC910084F185E02D0995ECCFA09678
:1017D0000FB6F894DEBF0FBECDBFDF91CF911F9142
:1017E0000F91FF90EF90DF90CF90BF90AF90089552
:1017F000FF920F931F93CF93DF93EC018B01F42E95
:1018000040E20E94640B0F0D111DF8013397908187
:1018100089130CC084E090E09983888388859F8138
:101820009DA38EA3CE01099698A78FA3DF91CF9198
:101830001F910F91FF900895AF92BF92CF92DF92C8
:10184000EF92FF920F931F93CF93DF93EC01888168
:101850009981049729F419821882CE010E94360BCF
:1018600082E0E82EF12C93E0C92ED12C8E010B5F83
:101870001F4FAA24A394B12C88819981049709F45D
:1018800071C09A818B81981738F4FE01E90FF11D20
:1018900085819F5F9A8320C089A59AA5DC01ED917F
:1018A000FC910190F081E02D0995892B09F45AC033
:1018B00089A59AA5DC01ED91FC910480F581E02DCC
:1018C00009959A8121E0290F2A83FE01E90FF11D74
:1018D00085839B819F5F9B832881398121303105DE
:1018E000A1F01CF4232B41F0C7CF2230310591F039
:1018F0002330310509F1C0CF803F21F0CE010E9495
:10190000360BBACFB982A882B7CF8A3CB9F7F98231
:10191000E882B2CF4A81443008F4AECF50E0288547
:1019200030E02A5F3F4F4217530709F0A5CF8335B8
:1019300029F7D982C882A0CF4A81443008F49CCFCD
:10194000642F70E0288530E0295F3F4F62177307EE
:1019500009F092CF8F3009F08FCFB801CE010E94ED
:10196000F80B8ACFDF91CF911F910F91FF90EF90ED
:10197000DF90CF90BF90AF900895A091CB03B0912E
:10198000CC03ED91FC9111970084F185E02D682F37
:10199000CD01099581E090E008958091CB0390916D
:1019A000CC03DC01ED91FC910480F581E02D0995DB
:1019B00090E008958F929F92AF92BF92CF92EF9254
:1019C000FF920F93CF93DF93EC0180917000009111
:1019D000B1004091B0008160C82E0460436089E08E
:1019E0008F9382EB882E912C97E3A92EB12C20E7C0
:1019F000E22EF12C21EB30E060EB70E0CE010E9492
:101A000094058AE992E0988F8F8B8BE293E09A8F0E
:101A1000898FCE01845A9F4F0E94C6028F89988D6C
:101A2000FE01E558FF4F118210821282138220E2DC
:101A30002483C056DF4F2FEF288319821B821A821E
:101A400092A781A7789487B18C7F87B988B18C7F62
:101A500088B90F90DF91CF910F91FF90EF90CF90C9
:101A6000BF90AF909F908F900895CF93DF93CDB7A5
:101A7000DEB764970FB6F894DEBF0FBECDBF7C0112
:101A80008BB18C608BB9539A529840E061E070E062
:101A9000C7014B960E94C70837018CE1680E711C84
:101AA000C3010E946E0A882359F020E044E161E0FE
:101AB000C3010E94940A882319F0C3010E944B0AB3
:101AC00057019CE5A90EB11C6701ABE7CA0ED11CFA
:101AD000FE0131964F01C70189599F4F9C8B8B8B1B
:101AE000270198E6490E511CC5010E946104C601F8
:101AF0000E941C0CC6010E94320B0497A9F7C60174
:101B00000E94620BFC0180819181A281B3818D874B
:101B10009E87AF87B88BCE010D960E94180B863733
:101B200009F4C4C0D8F4813709F4B0C058F4813046
:101B300009F44CC0C0F1803609F45BC0803709F469
:101B40006EC0D2CF833709F4C0C008F47AC084379E
:101B500009F48CC0853709F491C0C6CF803C09F4E4
:101B60000CC178F4813809F4D6C020F4803809F427
:101B7000BFC0BACF823809F4EDC0813A09F46DC212
:101B8000B3CF843C09F412C238F4813C09F43AC161
:101B9000823C09F4BBC1A8CF803D09F413C1813D4B
:101BA00009F475C1A1CFCE010D960E942B0B8111B6
:101BB0009BCFC7010E94E80599878A877B876C873E
:101BC00024E0AE01475F5F4F60E043C2CE010D9657
:101BD0000E942B0B811188CF0E945C0866E070E0A8
:101BE0000E945F08898721E0AE01475F5F4F61E097
:101BF00030C2CE010D960E942B0B811175CF86B19C
:101C000091E0869581708927898786B181709827B0
:101C10009A8722E0AE01475F5F4F60E61AC2CE01AD
:101C20000D960E942B0B813009F05ECFCE010D96F0
:101C30000E942E0BDC016C91C5010E94770263E0CB
:101C400011C0CE010D960E942B0B813009F04CCFB4
:101C5000CE010D960E942E0BFC016081C5010E94F1
:101C6000340264E0C5010E942D033ECFCE010D96E3
:101C70000E942B0B811138CF62E0F4CFCE010D967C
:101C80000E942B0B811130CF60E0ECCFCE010D967E
:101C90000E942B0B811128CFC5010E9408038A8B5B
:101CA00021E0AE014E5E5F4F61E7D3C1CE010D96DC
:101CB0000E942B0B811118CFD5018C91898B21E0CB
:101CC000AE014F5E5F4F66E7C4C1CE010D960E9424
:101CD0002B0B811109CFEB89FC8980818987D20187
:101CE0008C918A8722E0AE01475F5F4F63E7B1C105
:101CF000CE010D960E942B0B813009F0F5CECE015E
:101D00000D960E942E0BFC018081882311F03B9AD6
:101D1000EBCE3B98E9CECE010D960E942B0B813085
:101D200009F0E2CECE010D960E942E0BDC018C91C3
:101D3000882339F0813051F485B18C7F85B9289A98
:101D4000D3CE85B18C7F85B9299ACECE85B18C7FD3
:101D500085B9CACECE010D960E942B0B8111C4CE3F
:101D60000E945C0867E070E00E945F08898721E0BC
:101D7000AE01475F5F4F62E86CC1CE010D960E94D5
:101D80002B0B813009F0B0CECE010D960E942E0BA8
:101D900021E041E0FC016081D70159968D919C9131
:101DA0005A970E949E07F701818D928DDC01ED917B
:101DB000FC910680F781E02D0995898321E0A4013B
:101DC00060EC47C1CE010D960E942B0B823009F0CA
:101DD0008BCECE010D960E942E0BFC010081CE0110
:101DE0000D960E942E0BDC0111961C91602FF701BD
:101DF000818D928D0E94E607D70159968D919C9115
:101E00005A9775C0CE010D960E942B0B823009F0B7
:101E10006BCECE010D960E942E0BDC011C91CE01E3
:101E20000D960E942E0BFC010181612FD70159965E
:101E30008D919C915A970E94E607F701818D928DB2
:101E4000DC01ED91FC910190F081E02D602F09956E
:101E500060E0F701818D928D0E94F40721E041E05E
:101E6000612FD70159968D919C915A970E949E0798
:101E7000F701818D928DDC01ED91FC910680F78157
:101E8000E02D0995898321E0A40161ECE2C0CE0137
:101E90000D960E942B0B833009F026CECE010D96B5
:101EA0000E942E0BFC013080CE010D960E942E0B5D
:101EB000DC0111960C91CE010D960E942E0BFC01B7
:101EC0001281632DD70159968D919C915A970E944A
:101ED000E607F701818D928DDC01ED91FC91019077
:101EE000F081E02D602F0995F701818D928DDC0145
:101EF000ED91FC910190F081E02D612F099561E059
:101F0000F701818D928D0E94F407EECDCE010D96E2
:101F10000E942B0B823009F0E7CDCE010D960E9476
:101F20002E0BDC011C91CE010D960E942E0BFC01A4
:101F30000181612FD70159968D919C915A970E94EA
:101F4000E607F701818D928DDC01ED91FC91019006
:101F5000F081E02D602F099560E0F701818D928D71
:101F60000E94F40721E042E0612FD70159968D913C
:101F70009C915A970E949E07F701818D928DDC01FA
:101F8000ED91FC910680F781E02D09958983F70199
:101F9000818D928DDC01ED91FC910680F781E02D21
:101FA00009958A8322E0A40162EC53C0CE010D960C
:101FB0000E942B0B833009F097CDCE010D960E9425
:101FC0002E0BFC011081CE010D960E942E0BDC0120
:101FD00011960C91CE010D960E942E0BFC013280C1
:101FE000612FD70159968D919C915A970E94E607CF
:101FF000F701818D928DDC01ED91FC910190F081D2
:10200000E02D602F099560E0F701818D928D0E948F
:10201000F40721E0432D612FD70159968D919C91B2
:102020005A970E949E078401802F8819831570F4A7
:10203000F701818D928DDC01ED91FC910680F78195
:10204000E02D0995F80181938F01EECF232DA40196
:1020500064ECC6010E94800B47CDCE010D960E9414
:10206000230B882309F440CDC3010E94B00A8823C2
:1020700081F0CE010D960E942B0B182FCE010D96EC
:102080000E942E0B08E09401412FBC01C3010E9465
:10209000D90AC3010E944B0A27CDCF93DF93CDB756
:1020A000DEB72E970FB6F894DEBF0FBECDBF8DEB17
:1020B0009CE09A8789878DEC9CE09C878B8783E0E6
:1020C0008C831E861D86CE01019690935B048093BF
:1020D0005A0484EB93E00E94350D84EB93E00C945A
:1020E000DA0CF8940C942511FB01DC0104C08D91ED
:1020F0000190801921F441505040C8F7881B990B7A
:102100000895FB01DC0102C001900D924150504046
:10211000D8F70895FB01DC014150504030F08D911B
:102120000190801919F40020B9F7881B990B0895C4
:1021300097FB072E16F4009407D077FD09D00E9474
:102140000B1107FC05D03EF4909581959F4F0895A3
:10215000709561957F4F0895A1E21A2EAA1BBB1BB3
:10216000FD010DC0AA1FBB1FEE1FFF1FA217B30763
:10217000E407F50720F0A21BB30BE40BF50B661F79
:10218000771F881F991F1A9469F76095709580953D
:1021900090959B01AC01BD01CF010895052E97FBE1
:1021A0001EF400940E94E51057FD07D00E94AC1069
:1021B00007FC03D04EF40C94E510509540953095F3
:1021C00021953F4F4F4F5F4F0895909580957095A3
:1021D00061957F4F8F4F9F4F08950E94F5103323D5
:1021E00012F48A1B9B0B0C940611A29FB001B39FA3
:1021F000C001A39F700D811D1124911DB29F700D10
:10220000811D1124911D08950E94F510B7FF0895B6
:10221000821B930B0895AA1BBB1B51E107C0AA1F89
:10222000BB1FA617B70710F0A61BB70B881F991F77
:102230005A95A9F780959095BC01CD010895EE0FB0
:0E224000FF1F0590F491E02D0994F894FFCF54
:10224E0000FF06FAD5030000FF00FF0000000000AB
:10225E00620076009200B000BB00000000006A032E
:10226E00000000002202000000005C0500000000DB
:10227E009E0647066A0679068E069D060001FFFF3A
:10228E00FFFFFFFFFFFFFFFFFFFFFFFF1011FF1319
:10229E001415FFFFFFFFFFFFFFFFFFFFFFFFFFFF15
:1022AE00FFFFFFFFFFFFFFFFFFFFFFFFFFFFFFFF30
:1022BE00FFFFFFFFFF39FFFFFFFFFFFF40414243DC
:1022CE004445FFFFFFFFFFFFFFFFFFFFFFFFFFFF85
:1022DE00FFFFFFFFFFFFFFFFFFFFFFFF60FFFFFF9F
:1022EE00FFFFFFFFFFFFFFFFFFFFFFFF7071727326
:1022FE00747576FFFFFFFFFFFFFFFFFF808182FFF8
:10230E00FFFFFFFFFFFFFFFFFFFFFFFF9091FFFFAC
:10231E00FFFFFFFFFFFFFFFFFFFFFFFFA0A1FFFF7C
:10232E00FFFFFFFFFFFFFFFFFFFFFFFFFFFFFFFFAF
:10233E00FFFFFFFFFFFFFFFFFFFFFFFFC0C1C2C395
:10234E00C4FFFFFFFFFFFFFFFFFFFFFFD0D1D2D380
:02235E00D400A9
:00000001FF
